{
    "_format": "hh-sol-artifact-1",
    "contractName": "Feedback",
    "sourceName": "contracts/Feedback.sol",
    "abi": [
        {
            "inputs": [
                {
                    "internalType": "address",
                    "name": "semaphoreAddress",
                    "type": "address"
                }
            ],
            "stateMutability": "nonpayable",
            "type": "constructor"
        },
        {
            "inputs": [],
            "name": "ERC721EnumerableForbiddenBatchMint",
            "type": "error"
        },
        {
            "inputs": [
                {
                    "internalType": "address",
                    "name": "sender",
                    "type": "address"
                },
                {
                    "internalType": "uint256",
                    "name": "tokenId",
                    "type": "uint256"
                },
                {
                    "internalType": "address",
                    "name": "owner",
                    "type": "address"
                }
            ],
            "name": "ERC721IncorrectOwner",
            "type": "error"
        },
        {
            "inputs": [
                {
                    "internalType": "address",
                    "name": "operator",
                    "type": "address"
                },
                {
                    "internalType": "uint256",
                    "name": "tokenId",
                    "type": "uint256"
                }
            ],
            "name": "ERC721InsufficientApproval",
            "type": "error"
        },
        {
            "inputs": [
                {
                    "internalType": "address",
                    "name": "approver",
                    "type": "address"
                }
            ],
            "name": "ERC721InvalidApprover",
            "type": "error"
        },
        {
            "inputs": [
                {
                    "internalType": "address",
                    "name": "operator",
                    "type": "address"
                }
            ],
            "name": "ERC721InvalidOperator",
            "type": "error"
        },
        {
            "inputs": [
                {
                    "internalType": "address",
                    "name": "owner",
                    "type": "address"
                }
            ],
            "name": "ERC721InvalidOwner",
            "type": "error"
        },
        {
            "inputs": [
                {
                    "internalType": "address",
                    "name": "receiver",
                    "type": "address"
                }
            ],
            "name": "ERC721InvalidReceiver",
            "type": "error"
        },
        {
            "inputs": [
                {
                    "internalType": "address",
                    "name": "sender",
                    "type": "address"
                }
            ],
            "name": "ERC721InvalidSender",
            "type": "error"
        },
        {
            "inputs": [
                {
                    "internalType": "uint256",
                    "name": "tokenId",
                    "type": "uint256"
                }
            ],
            "name": "ERC721NonexistentToken",
            "type": "error"
        },
        {
            "inputs": [
                {
                    "internalType": "address",
                    "name": "owner",
                    "type": "address"
                },
                {
                    "internalType": "uint256",
                    "name": "index",
                    "type": "uint256"
                }
            ],
            "name": "ERC721OutOfBoundsIndex",
            "type": "error"
        },
        {
            "anonymous": false,
            "inputs": [
                {
                    "indexed": true,
                    "internalType": "address",
                    "name": "owner",
                    "type": "address"
                },
                {
                    "indexed": true,
                    "internalType": "address",
                    "name": "approved",
                    "type": "address"
                },
                {
                    "indexed": true,
                    "internalType": "uint256",
                    "name": "tokenId",
                    "type": "uint256"
                }
            ],
            "name": "Approval",
            "type": "event"
        },
        {
            "anonymous": false,
            "inputs": [
                {
                    "indexed": true,
                    "internalType": "address",
                    "name": "owner",
                    "type": "address"
                },
                {
                    "indexed": true,
                    "internalType": "address",
                    "name": "operator",
                    "type": "address"
                },
                {
                    "indexed": false,
                    "internalType": "bool",
                    "name": "approved",
                    "type": "bool"
                }
            ],
            "name": "ApprovalForAll",
            "type": "event"
        },
        {
            "anonymous": false,
            "inputs": [
                {
                    "indexed": true,
                    "internalType": "address",
                    "name": "from",
                    "type": "address"
                },
                {
                    "indexed": true,
                    "internalType": "address",
                    "name": "to",
                    "type": "address"
                },
                {
                    "indexed": true,
                    "internalType": "uint256",
                    "name": "tokenId",
                    "type": "uint256"
                }
            ],
            "name": "Transfer",
            "type": "event"
        },
        {
            "inputs": [
                {
                    "internalType": "address",
                    "name": "to",
                    "type": "address"
                },
                {
                    "internalType": "uint256",
                    "name": "tokenId",
                    "type": "uint256"
                }
            ],
            "name": "approve",
            "outputs": [],
            "stateMutability": "nonpayable",
            "type": "function"
        },
        {
            "inputs": [
                {
                    "internalType": "address",
                    "name": "owner",
                    "type": "address"
                }
            ],
            "name": "balanceOf",
            "outputs": [
                {
                    "internalType": "uint256",
                    "name": "",
                    "type": "uint256"
                }
            ],
            "stateMutability": "view",
            "type": "function"
        },
        {
            "inputs": [
                {
                    "internalType": "string",
                    "name": "name",
                    "type": "string"
                }
            ],
            "name": "createGroup",
            "outputs": [],
            "stateMutability": "nonpayable",
            "type": "function"
        },
        {
            "inputs": [
                {
                    "internalType": "uint256",
                    "name": "merkleTreeDepth",
                    "type": "uint256"
                },
                {
                    "internalType": "uint256",
                    "name": "merkleTreeRoot",
                    "type": "uint256"
                },
                {
                    "internalType": "uint256",
                    "name": "nullifier",
                    "type": "uint256"
                },
                {
                    "internalType": "uint256",
                    "name": "feedback",
                    "type": "uint256"
                },
                {
                    "internalType": "uint256[8]",
                    "name": "points",
                    "type": "uint256[8]"
                },
                {
                    "internalType": "address",
                    "name": "mintTo",
                    "type": "address"
                },
                {
                    "internalType": "uint256",
                    "name": "groupId",
                    "type": "uint256"
                }
            ],
            "name": "enterEvent",
            "outputs": [],
            "stateMutability": "nonpayable",
            "type": "function"
        },
        {
            "inputs": [],
            "name": "getAllGroups",
            "outputs": [
                {
                    "components": [
                        {
                            "internalType": "uint256",
                            "name": "groupId",
                            "type": "uint256"
                        },
                        {
                            "internalType": "string",
                            "name": "name",
                            "type": "string"
                        }
                    ],
                    "internalType": "struct Feedback.GroupInfo[]",
                    "name": "",
                    "type": "tuple[]"
                }
            ],
            "stateMutability": "view",
            "type": "function"
        },
        {
            "inputs": [
                {
                    "internalType": "uint256",
                    "name": "groupId",
                    "type": "uint256"
                }
            ],
            "name": "getAllNftsForGroup",
            "outputs": [
                {
                    "internalType": "uint256[]",
                    "name": "",
                    "type": "uint256[]"
                }
            ],
            "stateMutability": "view",
            "type": "function"
        },
        {
            "inputs": [
                {
                    "internalType": "uint256",
                    "name": "tokenId",
                    "type": "uint256"
                }
            ],
            "name": "getApproved",
            "outputs": [
                {
                    "internalType": "address",
                    "name": "",
                    "type": "address"
                }
            ],
            "stateMutability": "view",
            "type": "function"
        },
        {
            "inputs": [
                {
                    "internalType": "uint256",
                    "name": "groupId",
                    "type": "uint256"
                }
            ],
            "name": "getGroup",
            "outputs": [
                {
                    "components": [
                        {
                            "internalType": "uint256",
                            "name": "groupId",
                            "type": "uint256"
                        },
                        {
                            "internalType": "string",
                            "name": "name",
                            "type": "string"
                        }
                    ],
                    "internalType": "struct Feedback.GroupInfo",
                    "name": "",
                    "type": "tuple"
                }
            ],
            "stateMutability": "view",
            "type": "function"
        },
        {
            "inputs": [
                {
                    "internalType": "uint256",
                    "name": "groupId",
                    "type": "uint256"
                }
            ],
            "name": "groupIdToGroupInfo",
            "outputs": [
                {
                    "internalType": "uint256",
                    "name": "groupId",
                    "type": "uint256"
                },
                {
                    "internalType": "string",
                    "name": "name",
                    "type": "string"
                }
            ],
            "stateMutability": "view",
            "type": "function"
        },
        {
            "inputs": [
                {
                    "internalType": "uint256",
                    "name": "groupId",
                    "type": "uint256"
                },
                {
                    "internalType": "uint256",
                    "name": "",
                    "type": "uint256"
                }
            ],
            "name": "groupIdsToTokenIds",
            "outputs": [
                {
                    "internalType": "uint256",
                    "name": "tokenIds",
                    "type": "uint256"
                }
            ],
            "stateMutability": "view",
            "type": "function"
        },
        {
            "inputs": [
                {
                    "internalType": "uint256",
                    "name": "",
                    "type": "uint256"
                }
            ],
            "name": "groups",
            "outputs": [
                {
                    "internalType": "uint256",
                    "name": "groupId",
                    "type": "uint256"
                },
                {
                    "internalType": "string",
                    "name": "name",
                    "type": "string"
                }
            ],
            "stateMutability": "view",
            "type": "function"
        },
        {
            "inputs": [
                {
                    "internalType": "address",
                    "name": "owner",
                    "type": "address"
                },
                {
                    "internalType": "address",
                    "name": "operator",
                    "type": "address"
                }
            ],
            "name": "isApprovedForAll",
            "outputs": [
                {
                    "internalType": "bool",
                    "name": "",
                    "type": "bool"
                }
            ],
            "stateMutability": "view",
            "type": "function"
        },
        {
            "inputs": [
                {
                    "internalType": "uint256",
                    "name": "groupId",
                    "type": "uint256"
                },
                {
                    "internalType": "uint256",
                    "name": "identityCommitment",
                    "type": "uint256"
                }
            ],
            "name": "joinGroup",
            "outputs": [],
            "stateMutability": "nonpayable",
            "type": "function"
        },
        {
            "inputs": [],
            "name": "name",
            "outputs": [
                {
                    "internalType": "string",
                    "name": "",
                    "type": "string"
                }
            ],
            "stateMutability": "view",
            "type": "function"
        },
        {
            "inputs": [
                {
                    "internalType": "uint256",
                    "name": "tokenId",
                    "type": "uint256"
                }
            ],
            "name": "ownerOf",
            "outputs": [
                {
                    "internalType": "address",
                    "name": "",
                    "type": "address"
                }
            ],
            "stateMutability": "view",
            "type": "function"
        },
        {
            "inputs": [
                {
                    "internalType": "address",
                    "name": "from",
                    "type": "address"
                },
                {
                    "internalType": "address",
                    "name": "to",
                    "type": "address"
                },
                {
                    "internalType": "uint256",
                    "name": "tokenId",
                    "type": "uint256"
                }
            ],
            "name": "safeTransferFrom",
            "outputs": [],
            "stateMutability": "nonpayable",
            "type": "function"
        },
        {
            "inputs": [
                {
                    "internalType": "address",
                    "name": "from",
                    "type": "address"
                },
                {
                    "internalType": "address",
                    "name": "to",
                    "type": "address"
                },
                {
                    "internalType": "uint256",
                    "name": "tokenId",
                    "type": "uint256"
                },
                {
                    "internalType": "bytes",
                    "name": "data",
                    "type": "bytes"
                }
            ],
            "name": "safeTransferFrom",
            "outputs": [],
            "stateMutability": "nonpayable",
            "type": "function"
        },
        {
            "inputs": [],
            "name": "semaphore",
            "outputs": [
                {
                    "internalType": "contract ISemaphore",
                    "name": "",
                    "type": "address"
                }
            ],
            "stateMutability": "view",
            "type": "function"
        },
        {
            "inputs": [
                {
                    "internalType": "address",
                    "name": "operator",
                    "type": "address"
                },
                {
                    "internalType": "bool",
                    "name": "approved",
                    "type": "bool"
                }
            ],
            "name": "setApprovalForAll",
            "outputs": [],
            "stateMutability": "nonpayable",
            "type": "function"
        },
        {
            "inputs": [
                {
                    "internalType": "bytes4",
                    "name": "interfaceId",
                    "type": "bytes4"
                }
            ],
            "name": "supportsInterface",
            "outputs": [
                {
                    "internalType": "bool",
                    "name": "",
                    "type": "bool"
                }
            ],
            "stateMutability": "view",
            "type": "function"
        },
        {
            "inputs": [],
            "name": "symbol",
            "outputs": [
                {
                    "internalType": "string",
                    "name": "",
                    "type": "string"
                }
            ],
            "stateMutability": "view",
            "type": "function"
        },
        {
            "inputs": [
                {
                    "internalType": "uint256",
                    "name": "index",
                    "type": "uint256"
                }
            ],
            "name": "tokenByIndex",
            "outputs": [
                {
                    "internalType": "uint256",
                    "name": "",
                    "type": "uint256"
                }
            ],
            "stateMutability": "view",
            "type": "function"
        },
        {
            "inputs": [
                {
                    "internalType": "uint256",
                    "name": "tokenId",
                    "type": "uint256"
                }
            ],
            "name": "tokenIdToGroupId",
            "outputs": [
                {
                    "internalType": "uint256",
                    "name": "groupId",
                    "type": "uint256"
                }
            ],
            "stateMutability": "view",
            "type": "function"
        },
        {
            "inputs": [
                {
                    "internalType": "address",
                    "name": "owner",
                    "type": "address"
                },
                {
                    "internalType": "uint256",
                    "name": "index",
                    "type": "uint256"
                }
            ],
            "name": "tokenOfOwnerByIndex",
            "outputs": [
                {
                    "internalType": "uint256",
                    "name": "",
                    "type": "uint256"
                }
            ],
            "stateMutability": "view",
            "type": "function"
        },
        {
            "inputs": [
                {
                    "internalType": "uint256",
                    "name": "tokenId",
                    "type": "uint256"
                }
            ],
            "name": "tokenURI",
            "outputs": [
                {
                    "internalType": "string",
                    "name": "",
                    "type": "string"
                }
            ],
            "stateMutability": "view",
            "type": "function"
        },
        {
            "inputs": [],
            "name": "totalSupply",
            "outputs": [
                {
                    "internalType": "uint256",
                    "name": "",
                    "type": "uint256"
                }
            ],
            "stateMutability": "view",
            "type": "function"
        },
        {
            "inputs": [
                {
                    "internalType": "address",
                    "name": "from",
                    "type": "address"
                },
                {
                    "internalType": "address",
                    "name": "to",
                    "type": "address"
                },
                {
                    "internalType": "uint256",
                    "name": "tokenId",
                    "type": "uint256"
                }
            ],
            "name": "transferFrom",
            "outputs": [],
            "stateMutability": "nonpayable",
            "type": "function"
        }
    ],
    "bytecode": "0x60806040523480156200001157600080fd5b5060405162003f0438038062003f04833981810160405281019062000037919062000302565b6040518060400160405280600f81526020017f416e6f6e796d6f75734576656e747300000000000000000000000000000000008152506040518060400160405280600281526020017f41450000000000000000000000000000000000000000000000000000000000008152508160009081620000b49190620005ae565b508060019081620000c69190620005ae565b50505080600a60006101000a81548173ffffffffffffffffffffffffffffffffffffffff021916908373ffffffffffffffffffffffffffffffffffffffff160217905550620001506040518060400160405280600781526020017f5065746e696361000000000000000000000000000000000000000000000000008152506200015760201b60201c565b50620006f8565b6000600a60009054906101000a900473ffffffffffffffffffffffffffffffffffffffff1673ffffffffffffffffffffffffffffffffffffffff1663575185ed6040518163ffffffff1660e01b81526004016020604051808303816000875af1158015620001c9573d6000803e3d6000fd5b505050506040513d601f19601f82011682018060405250810190620001ef9190620006c6565b905060006040518060400160405280838152602001848152509050600b819080600181540180825580915050600190039060005260206000209060020201600090919091909150600082015181600001556020820151816001019081620002579190620005ae565b50505080600c60008481526020019081526020016000206000820151816000015560208201518160010190816200028f9190620005ae565b50905050505050565b600080fd5b600073ffffffffffffffffffffffffffffffffffffffff82169050919050565b6000620002ca826200029d565b9050919050565b620002dc81620002bd565b8114620002e857600080fd5b50565b600081519050620002fc81620002d1565b92915050565b6000602082840312156200031b576200031a62000298565b5b60006200032b84828501620002eb565b91505092915050565b600081519050919050565b7f4e487b7100000000000000000000000000000000000000000000000000000000600052604160045260246000fd5b7f4e487b7100000000000000000000000000000000000000000000000000000000600052602260045260246000fd5b60006002820490506001821680620003b657607f821691505b602082108103620003cc57620003cb6200036e565b5b50919050565b60008190508160005260206000209050919050565b60006020601f8301049050919050565b600082821b905092915050565b600060088302620004367fffffffffffffffffffffffffffffffffffffffffffffffffffffffffffffffff82620003f7565b620004428683620003f7565b95508019841693508086168417925050509392505050565b6000819050919050565b6000819050919050565b60006200048f6200048962000483846200045a565b62000464565b6200045a565b9050919050565b6000819050919050565b620004ab836200046e565b620004c3620004ba8262000496565b84845462000404565b825550505050565b600090565b620004da620004cb565b620004e7818484620004a0565b505050565b5b818110156200050f5762000503600082620004d0565b600181019050620004ed565b5050565b601f8211156200055e576200052881620003d2565b6200053384620003e7565b8101602085101562000543578190505b6200055b6200055285620003e7565b830182620004ec565b50505b505050565b600082821c905092915050565b6000620005836000198460080262000563565b1980831691505092915050565b60006200059e838362000570565b9150826002028217905092915050565b620005b98262000334565b67ffffffffffffffff811115620005d557620005d46200033f565b5b620005e182546200039d565b620005ee82828562000513565b600060209050601f83116001811462000626576000841562000611578287015190505b6200061d858262000590565b8655506200068d565b601f1984166200063686620003d2565b60005b82811015620006605784890151825560018201915060208501945060208101905062000639565b868310156200068057848901516200067c601f89168262000570565b8355505b6001600288020188555050505b505050505050565b620006a0816200045a565b8114620006ac57600080fd5b50565b600081519050620006c08162000695565b92915050565b600060208284031215620006df57620006de62000298565b5b6000620006ef84828501620006af565b91505092915050565b6137fc80620007086000396000f3fe608060405234801561001057600080fd5b50600436106101a95760003560e01c80636352211e116100f9578063bd01ae9f11610097578063c87b56dd11610071578063c87b56dd1461051a578063ceb606541461054a578063dc2ddcae1461057a578063e985e9c514610596576101a9565b8063bd01ae9f1461049e578063bda1f895146104ba578063c302791c146104ea576101a9565b806395d89b41116100d357806395d89b411461041757806396324bd414610435578063a22cb46514610466578063b88d4fde14610482576101a9565b80636352211e1461039957806370a08231146103c95780637b5d2534146103f9576101a9565b806318160ddd1161016657806323b872dd1161014057806323b872dd146103015780632f745c591461031d57806342842e0e1461034d5780634f6ccce714610369576101a9565b806318160ddd146102a95780631a0c750c146102c757806321cd3cae146102e3576101a9565b8063011eb44d146101ae57806301674a38146101de57806301ffc9a71461020f57806306fdde031461023f578063081812fc1461025d578063095ea7b31461028d575b600080fd5b6101c860048036038101906101c39190612610565b6105c6565b6040516101d5919061264c565b60405180910390f35b6101f860048036038101906101f39190612610565b6105de565b6040516102069291906126f7565b60405180910390f35b6102296004803603810190610224919061277f565b61068a565b60405161023691906127c7565b60405180910390f35b610247610704565b60405161025491906127e2565b60405180910390f35b61027760048036038101906102729190612610565b610796565b6040516102849190612845565b60405180910390f35b6102a760048036038101906102a2919061288c565b6107b2565b005b6102b16107c8565b6040516102be919061264c565b60405180910390f35b6102e160048036038101906102dc91906128cc565b6107d5565b005b6102eb610868565b6040516102f89190612a64565b60405180910390f35b61031b60048036038101906103169190612a86565b610963565b005b6103376004803603810190610332919061288c565b610a65565b604051610344919061264c565b60405180910390f35b61036760048036038101906103629190612a86565b610b0e565b005b610383600480360381019061037e9190612610565b610b2e565b604051610390919061264c565b60405180910390f35b6103b360048036038101906103ae9190612610565b610ba4565b6040516103c09190612845565b60405180910390f35b6103e360048036038101906103de9190612ad9565b610bb6565b6040516103f0919061264c565b60405180910390f35b610401610c70565b60405161040e9190612b65565b60405180910390f35b61041f610c96565b60405161042c91906127e2565b60405180910390f35b61044f600480360381019061044a9190612610565b610d28565b60405161045d9291906126f7565b60405180910390f35b610480600480360381019061047b9190612bac565b610de4565b005b61049c60048036038101906104979190612d21565b610dfa565b005b6104b860048036038101906104b39190612dcb565b610e17565b005b6104d460048036038101906104cf9190612610565b610f81565b6040516104e19190612f1f565b60405180910390f35b61050460048036038101906104ff91906128cc565b610fec565b604051610511919061264c565b60405180910390f35b610534600480360381019061052f9190612610565b61101d565b60405161054191906127e2565b60405180910390f35b610564600480360381019061055f9190612610565b611086565b6040516105719190612f7e565b60405180910390f35b610594600480360381019061058f9190613041565b61115e565b005b6105b060048036038101906105ab919061308a565b611298565b6040516105bd91906127c7565b60405180910390f35b600d6020528060005260406000206000915090505481565b600c602052806000526040600020600091509050806000015490806001018054610607906130f9565b80601f0160208091040260200160405190810160405280929190818152602001828054610633906130f9565b80156106805780601f1061065557610100808354040283529160200191610680565b820191906000526020600020905b81548152906001019060200180831161066357829003601f168201915b5050505050905082565b60007f780e9d63000000000000000000000000000000000000000000000000000000007bffffffffffffffffffffffffffffffffffffffffffffffffffffffff1916827bffffffffffffffffffffffffffffffffffffffffffffffffffffffff191614806106fd57506106fc8261132c565b5b9050919050565b606060008054610713906130f9565b80601f016020809104026020016040519081016040528092919081815260200182805461073f906130f9565b801561078c5780601f106107615761010080835404028352916020019161078c565b820191906000526020600020905b81548152906001019060200180831161076f57829003601f168201915b5050505050905090565b60006107a18261140e565b506107ab82611496565b9050919050565b6107c482826107bf6114d3565b6114db565b5050565b6000600880549050905090565b600a60009054906101000a900473ffffffffffffffffffffffffffffffffffffffff1673ffffffffffffffffffffffffffffffffffffffff16631783efc383836040518363ffffffff1660e01b815260040161083292919061312a565b600060405180830381600087803b15801561084c57600080fd5b505af1158015610860573d6000803e3d6000fd5b505050505050565b6060600b805480602002602001604051908101604052809291908181526020016000905b8282101561095a5783829060005260206000209060020201604051806040016040529081600082015481526020016001820180546108c9906130f9565b80601f01602080910402602001604051908101604052809291908181526020018280546108f5906130f9565b80156109425780601f1061091757610100808354040283529160200191610942565b820191906000526020600020905b81548152906001019060200180831161092557829003601f168201915b5050505050815250508152602001906001019061088c565b50505050905090565b600073ffffffffffffffffffffffffffffffffffffffff168273ffffffffffffffffffffffffffffffffffffffff16036109d55760006040517f64a0ae920000000000000000000000000000000000000000000000000000000081526004016109cc9190612845565b60405180910390fd5b60006109e983836109e46114d3565b6114ed565b90508373ffffffffffffffffffffffffffffffffffffffff168173ffffffffffffffffffffffffffffffffffffffff1614610a5f578382826040517f64283d7b000000000000000000000000000000000000000000000000000000008152600401610a5693929190613153565b60405180910390fd5b50505050565b6000610a7083610bb6565b8210610ab55782826040517fa57d13dc000000000000000000000000000000000000000000000000000000008152600401610aac92919061318a565b60405180910390fd5b600660008473ffffffffffffffffffffffffffffffffffffffff1673ffffffffffffffffffffffffffffffffffffffff168152602001908152602001600020600083815260200190815260200160002054905092915050565b610b2983838360405180602001604052806000815250610dfa565b505050565b6000610b386107c8565b8210610b7e576000826040517fa57d13dc000000000000000000000000000000000000000000000000000000008152600401610b7592919061318a565b60405180910390fd5b60088281548110610b9257610b916131b3565b5b90600052602060002001549050919050565b6000610baf8261140e565b9050919050565b60008073ffffffffffffffffffffffffffffffffffffffff168273ffffffffffffffffffffffffffffffffffffffff1603610c295760006040517f89c62b64000000000000000000000000000000000000000000000000000000008152600401610c209190612845565b60405180910390fd5b600360008373ffffffffffffffffffffffffffffffffffffffff1673ffffffffffffffffffffffffffffffffffffffff168152602001908152602001600020549050919050565b600a60009054906101000a900473ffffffffffffffffffffffffffffffffffffffff1681565b606060018054610ca5906130f9565b80601f0160208091040260200160405190810160405280929190818152602001828054610cd1906130f9565b8015610d1e5780601f10610cf357610100808354040283529160200191610d1e565b820191906000526020600020905b815481529060010190602001808311610d0157829003601f168201915b5050505050905090565b600b8181548110610d3857600080fd5b9060005260206000209060020201600091509050806000015490806001018054610d61906130f9565b80601f0160208091040260200160405190810160405280929190818152602001828054610d8d906130f9565b8015610dda5780601f10610daf57610100808354040283529160200191610dda565b820191906000526020600020905b815481529060010190602001808311610dbd57829003601f168201915b5050505050905082565b610df6610def6114d3565b838361160a565b5050565b610e05848484610963565b610e1184848484611779565b50505050565b60006040518060c00160405280898152602001888152602001878152602001868152602001838152602001856008806020026040519081016040528092919082600860200280828437600081840152601f19601f8201169050808301925050505050508152509050600a60009054906101000a900473ffffffffffffffffffffffffffffffffffffffff1673ffffffffffffffffffffffffffffffffffffffff1663d0d898dd83836040518363ffffffff1660e01b8152600401610edc9291906132e2565b600060405180830381600087803b158015610ef657600080fd5b505af1158015610f0a573d6000803e3d6000fd5b505050506000610f186107c8565b9050610f248482611930565b82600d600083815260200190815260200160002081905550600e6000848152602001908152602001600020819080600181540180825580915050600190039060005260206000200160009091909190915055505050505050505050565b6060600e6000838152602001908152602001600020805480602002602001604051908101604052809291908181526020018280548015610fe057602002820191906000526020600020905b815481526020019060010190808311610fcc575b50505050509050919050565b600e602052816000526040600020818154811061100857600080fd5b90600052602060002001600091509150505481565b60606110288261140e565b50600061103361194e565b90506000815111611053576040518060200160405280600081525061107e565b8061105d84611965565b60405160200161106e929190613348565b6040516020818303038152906040525b915050919050565b61108e6125ac565b600b82815481106110a2576110a16131b3565b5b9060005260206000209060020201604051806040016040529081600082015481526020016001820180546110d5906130f9565b80601f0160208091040260200160405190810160405280929190818152602001828054611101906130f9565b801561114e5780601f106111235761010080835404028352916020019161114e565b820191906000526020600020905b81548152906001019060200180831161113157829003601f168201915b5050505050815250509050919050565b6000600a60009054906101000a900473ffffffffffffffffffffffffffffffffffffffff1673ffffffffffffffffffffffffffffffffffffffff1663575185ed6040518163ffffffff1660e01b81526004016020604051808303816000875af11580156111cf573d6000803e3d6000fd5b505050506040513d601f19601f820116820180604052508101906111f39190613381565b905060006040518060400160405280838152602001848152509050600b8190806001815401808255809150506001900390600052602060002090600202016000909190919091506000820151816000015560208201518160010190816112599190613550565b50505080600c600084815260200190815260200160002060008201518160000155602082015181600101908161128f9190613550565b50905050505050565b6000600560008473ffffffffffffffffffffffffffffffffffffffff1673ffffffffffffffffffffffffffffffffffffffff16815260200190815260200160002060008373ffffffffffffffffffffffffffffffffffffffff1673ffffffffffffffffffffffffffffffffffffffff16815260200190815260200160002060009054906101000a900460ff16905092915050565b60007f80ac58cd000000000000000000000000000000000000000000000000000000007bffffffffffffffffffffffffffffffffffffffffffffffffffffffff1916827bffffffffffffffffffffffffffffffffffffffffffffffffffffffff191614806113f757507f5b5e139f000000000000000000000000000000000000000000000000000000007bffffffffffffffffffffffffffffffffffffffffffffffffffffffff1916827bffffffffffffffffffffffffffffffffffffffffffffffffffffffff1916145b80611407575061140682611a33565b5b9050919050565b60008061141a83611a9d565b9050600073ffffffffffffffffffffffffffffffffffffffff168173ffffffffffffffffffffffffffffffffffffffff160361148d57826040517f7e273289000000000000000000000000000000000000000000000000000000008152600401611484919061264c565b60405180910390fd5b80915050919050565b60006004600083815260200190815260200160002060009054906101000a900473ffffffffffffffffffffffffffffffffffffffff169050919050565b600033905090565b6114e88383836001611ada565b505050565b6000806114fb858585611c9f565b9050600073ffffffffffffffffffffffffffffffffffffffff168173ffffffffffffffffffffffffffffffffffffffff160361153f5761153a84611eb9565b61157e565b8473ffffffffffffffffffffffffffffffffffffffff168173ffffffffffffffffffffffffffffffffffffffff161461157d5761157c8185611f02565b5b5b600073ffffffffffffffffffffffffffffffffffffffff168573ffffffffffffffffffffffffffffffffffffffff16036115c0576115bb84612063565b6115ff565b8473ffffffffffffffffffffffffffffffffffffffff168173ffffffffffffffffffffffffffffffffffffffff16146115fe576115fd8585612134565b5b5b809150509392505050565b600073ffffffffffffffffffffffffffffffffffffffff168273ffffffffffffffffffffffffffffffffffffffff160361167b57816040517f5b08ba180000000000000000000000000000000000000000000000000000000081526004016116729190612845565b60405180910390fd5b80600560008573ffffffffffffffffffffffffffffffffffffffff1673ffffffffffffffffffffffffffffffffffffffff16815260200190815260200160002060008473ffffffffffffffffffffffffffffffffffffffff1673ffffffffffffffffffffffffffffffffffffffff16815260200190815260200160002060006101000a81548160ff0219169083151502179055508173ffffffffffffffffffffffffffffffffffffffff168373ffffffffffffffffffffffffffffffffffffffff167f17307eab39ab6107e8899845ad3d59bd9653f200f220920489ca2b5937696c318360405161176c91906127c7565b60405180910390a3505050565b60008373ffffffffffffffffffffffffffffffffffffffff163b111561192a578273ffffffffffffffffffffffffffffffffffffffff1663150b7a026117bd6114d3565b8685856040518563ffffffff1660e01b81526004016117df9493929190613677565b6020604051808303816000875af192505050801561181b57506040513d601f19601f8201168201806040525081019061181891906136d8565b60015b61189f573d806000811461184b576040519150601f19603f3d011682016040523d82523d6000602084013e611850565b606091505b50600081510361189757836040517f64a0ae9200000000000000000000000000000000000000000000000000000000815260040161188e9190612845565b60405180910390fd5b805181602001fd5b63150b7a0260e01b7bffffffffffffffffffffffffffffffffffffffffffffffffffffffff1916817bffffffffffffffffffffffffffffffffffffffffffffffffffffffff19161461192857836040517f64a0ae9200000000000000000000000000000000000000000000000000000000815260040161191f9190612845565b60405180910390fd5b505b50505050565b61194a8282604051806020016040528060008152506121bf565b5050565b606060405180602001604052806000815250905090565b606060006001611974846121db565b01905060008167ffffffffffffffff81111561199357611992612bf6565b5b6040519080825280601f01601f1916602001820160405280156119c55781602001600182028036833780820191505090505b509050600082602001820190505b600115611a28578080600190039150507f3031323334353637383961626364656600000000000000000000000000000000600a86061a8153600a8581611a1c57611a1b613705565b5b049450600085036119d3575b819350505050919050565b60007f01ffc9a7000000000000000000000000000000000000000000000000000000007bffffffffffffffffffffffffffffffffffffffffffffffffffffffff1916827bffffffffffffffffffffffffffffffffffffffffffffffffffffffff1916149050919050565b60006002600083815260200190815260200160002060009054906101000a900473ffffffffffffffffffffffffffffffffffffffff169050919050565b8080611b135750600073ffffffffffffffffffffffffffffffffffffffff168273ffffffffffffffffffffffffffffffffffffffff1614155b15611c47576000611b238461140e565b9050600073ffffffffffffffffffffffffffffffffffffffff168373ffffffffffffffffffffffffffffffffffffffff1614158015611b8e57508273ffffffffffffffffffffffffffffffffffffffff168173ffffffffffffffffffffffffffffffffffffffff1614155b8015611ba15750611b9f8184611298565b155b15611be357826040517fa9fbf51f000000000000000000000000000000000000000000000000000000008152600401611bda9190612845565b60405180910390fd5b8115611c4557838573ffffffffffffffffffffffffffffffffffffffff168273ffffffffffffffffffffffffffffffffffffffff167f8c5be1e5ebec7d5bd14f71427d1e84f3dd0314c0f7b2291e5b200ac8c7c3b92560405160405180910390a45b505b836004600085815260200190815260200160002060006101000a81548173ffffffffffffffffffffffffffffffffffffffff021916908373ffffffffffffffffffffffffffffffffffffffff16021790555050505050565b600080611cab84611a9d565b9050600073ffffffffffffffffffffffffffffffffffffffff168373ffffffffffffffffffffffffffffffffffffffff1614611ced57611cec81848661232e565b5b600073ffffffffffffffffffffffffffffffffffffffff168173ffffffffffffffffffffffffffffffffffffffff1614611d7e57611d2f600085600080611ada565b6001600360008373ffffffffffffffffffffffffffffffffffffffff1673ffffffffffffffffffffffffffffffffffffffff168152602001908152602001600020600082825403925050819055505b600073ffffffffffffffffffffffffffffffffffffffff168573ffffffffffffffffffffffffffffffffffffffff1614611e01576001600360008773ffffffffffffffffffffffffffffffffffffffff1673ffffffffffffffffffffffffffffffffffffffff168152602001908152602001600020600082825401925050819055505b846002600086815260200190815260200160002060006101000a81548173ffffffffffffffffffffffffffffffffffffffff021916908373ffffffffffffffffffffffffffffffffffffffff160217905550838573ffffffffffffffffffffffffffffffffffffffff168273ffffffffffffffffffffffffffffffffffffffff167fddf252ad1be2c89b69c2b068fc378daa952ba7f163c4a11628f55a4df523b3ef60405160405180910390a4809150509392505050565b6008805490506009600083815260200190815260200160002081905550600881908060018154018082558091505060019003906000526020600020016000909190919091505550565b6000611f0d83610bb6565b9050600060076000848152602001908152602001600020549050818114611ff2576000600660008673ffffffffffffffffffffffffffffffffffffffff1673ffffffffffffffffffffffffffffffffffffffff168152602001908152602001600020600084815260200190815260200160002054905080600660008773ffffffffffffffffffffffffffffffffffffffff1673ffffffffffffffffffffffffffffffffffffffff168152602001908152602001600020600084815260200190815260200160002081905550816007600083815260200190815260200160002081905550505b6007600084815260200190815260200160002060009055600660008573ffffffffffffffffffffffffffffffffffffffff1673ffffffffffffffffffffffffffffffffffffffff16815260200190815260200160002060008381526020019081526020016000206000905550505050565b600060016008805490506120779190613763565b90506000600960008481526020019081526020016000205490506000600883815481106120a7576120a66131b3565b5b9060005260206000200154905080600883815481106120c9576120c86131b3565b5b90600052602060002001819055508160096000838152602001908152602001600020819055506009600085815260200190815260200160002060009055600880548061211857612117613797565b5b6001900381819060005260206000200160009055905550505050565b6000600161214184610bb6565b61214b9190613763565b905081600660008573ffffffffffffffffffffffffffffffffffffffff1673ffffffffffffffffffffffffffffffffffffffff168152602001908152602001600020600083815260200190815260200160002081905550806007600084815260200190815260200160002081905550505050565b6121c983836123f2565b6121d66000848484611779565b505050565b600080600090507a184f03e93ff9f4daa797ed6e38ed64bf6a1f0100000000000000008310612239577a184f03e93ff9f4daa797ed6e38ed64bf6a1f010000000000000000838161222f5761222e613705565b5b0492506040810190505b6d04ee2d6d415b85acef81000000008310612276576d04ee2d6d415b85acef8100000000838161226c5761226b613705565b5b0492506020810190505b662386f26fc1000083106122a557662386f26fc10000838161229b5761229a613705565b5b0492506010810190505b6305f5e10083106122ce576305f5e10083816122c4576122c3613705565b5b0492506008810190505b61271083106122f35761271083816122e9576122e8613705565b5b0492506004810190505b60648310612316576064838161230c5761230b613705565b5b0492506002810190505b600a8310612325576001810190505b80915050919050565b6123398383836124eb565b6123ed57600073ffffffffffffffffffffffffffffffffffffffff168373ffffffffffffffffffffffffffffffffffffffff16036123ae57806040517f7e2732890000000000000000000000000000000000000000000000000000000081526004016123a5919061264c565b60405180910390fd5b81816040517f177e802f0000000000000000000000000000000000000000000000000000000081526004016123e492919061318a565b60405180910390fd5b505050565b600073ffffffffffffffffffffffffffffffffffffffff168273ffffffffffffffffffffffffffffffffffffffff16036124645760006040517f64a0ae9200000000000000000000000000000000000000000000000000000000815260040161245b9190612845565b60405180910390fd5b6000612472838360006114ed565b9050600073ffffffffffffffffffffffffffffffffffffffff168173ffffffffffffffffffffffffffffffffffffffff16146124e65760006040517f73c6ac6e0000000000000000000000000000000000000000000000000000000081526004016124dd9190612845565b60405180910390fd5b505050565b60008073ffffffffffffffffffffffffffffffffffffffff168373ffffffffffffffffffffffffffffffffffffffff16141580156125a357508273ffffffffffffffffffffffffffffffffffffffff168473ffffffffffffffffffffffffffffffffffffffff16148061256457506125638484611298565b5b806125a257508273ffffffffffffffffffffffffffffffffffffffff1661258a83611496565b73ffffffffffffffffffffffffffffffffffffffff16145b5b90509392505050565b604051806040016040528060008152602001606081525090565b6000604051905090565b600080fd5b600080fd5b6000819050919050565b6125ed816125da565b81146125f857600080fd5b50565b60008135905061260a816125e4565b92915050565b600060208284031215612626576126256125d0565b5b6000612634848285016125fb565b91505092915050565b612646816125da565b82525050565b6000602082019050612661600083018461263d565b92915050565b600081519050919050565b600082825260208201905092915050565b60005b838110156126a1578082015181840152602081019050612686565b60008484015250505050565b6000601f19601f8301169050919050565b60006126c982612667565b6126d38185612672565b93506126e3818560208601612683565b6126ec816126ad565b840191505092915050565b600060408201905061270c600083018561263d565b818103602083015261271e81846126be565b90509392505050565b60007fffffffff0000000000000000000000000000000000000000000000000000000082169050919050565b61275c81612727565b811461276757600080fd5b50565b60008135905061277981612753565b92915050565b600060208284031215612795576127946125d0565b5b60006127a38482850161276a565b91505092915050565b60008115159050919050565b6127c1816127ac565b82525050565b60006020820190506127dc60008301846127b8565b92915050565b600060208201905081810360008301526127fc81846126be565b905092915050565b600073ffffffffffffffffffffffffffffffffffffffff82169050919050565b600061282f82612804565b9050919050565b61283f81612824565b82525050565b600060208201905061285a6000830184612836565b92915050565b61286981612824565b811461287457600080fd5b50565b60008135905061288681612860565b92915050565b600080604083850312156128a3576128a26125d0565b5b60006128b185828601612877565b92505060206128c2858286016125fb565b9150509250929050565b600080604083850312156128e3576128e26125d0565b5b60006128f1858286016125fb565b9250506020612902858286016125fb565b9150509250929050565b600081519050919050565b600082825260208201905092915050565b6000819050602082019050919050565b612941816125da565b82525050565b600082825260208201905092915050565b600061296382612667565b61296d8185612947565b935061297d818560208601612683565b612986816126ad565b840191505092915050565b60006040830160008301516129a96000860182612938565b50602083015184820360208601526129c18282612958565b9150508091505092915050565b60006129da8383612991565b905092915050565b6000602082019050919050565b60006129fa8261290c565b612a048185612917565b935083602082028501612a1685612928565b8060005b85811015612a525784840389528151612a3385826129ce565b9450612a3e836129e2565b925060208a01995050600181019050612a1a565b50829750879550505050505092915050565b60006020820190508181036000830152612a7e81846129ef565b905092915050565b600080600060608486031215612a9f57612a9e6125d0565b5b6000612aad86828701612877565b9350506020612abe86828701612877565b9250506040612acf868287016125fb565b9150509250925092565b600060208284031215612aef57612aee6125d0565b5b6000612afd84828501612877565b91505092915050565b6000819050919050565b6000612b2b612b26612b2184612804565b612b06565b612804565b9050919050565b6000612b3d82612b10565b9050919050565b6000612b4f82612b32565b9050919050565b612b5f81612b44565b82525050565b6000602082019050612b7a6000830184612b56565b92915050565b612b89816127ac565b8114612b9457600080fd5b50565b600081359050612ba681612b80565b92915050565b60008060408385031215612bc357612bc26125d0565b5b6000612bd185828601612877565b9250506020612be285828601612b97565b9150509250929050565b600080fd5b600080fd5b7f4e487b7100000000000000000000000000000000000000000000000000000000600052604160045260246000fd5b612c2e826126ad565b810181811067ffffffffffffffff82111715612c4d57612c4c612bf6565b5b80604052505050565b6000612c606125c6565b9050612c6c8282612c25565b919050565b600067ffffffffffffffff821115612c8c57612c8b612bf6565b5b612c95826126ad565b9050602081019050919050565b82818337600083830152505050565b6000612cc4612cbf84612c71565b612c56565b905082815260208101848484011115612ce057612cdf612bf1565b5b612ceb848285612ca2565b509392505050565b600082601f830112612d0857612d07612bec565b5b8135612d18848260208601612cb1565b91505092915050565b60008060008060808587031215612d3b57612d3a6125d0565b5b6000612d4987828801612877565b9450506020612d5a87828801612877565b9350506040612d6b878288016125fb565b925050606085013567ffffffffffffffff811115612d8c57612d8b6125d5565b5b612d9887828801612cf3565b91505092959194509250565b600080fd5b600081905082602060080282011115612dc557612dc4612da4565b5b92915050565b60008060008060008060006101c0888a031215612deb57612dea6125d0565b5b6000612df98a828b016125fb565b9750506020612e0a8a828b016125fb565b9650506040612e1b8a828b016125fb565b9550506060612e2c8a828b016125fb565b9450506080612e3d8a828b01612da9565b935050610180612e4f8a828b01612877565b9250506101a0612e618a828b016125fb565b91505092959891949750929550565b600081519050919050565b600082825260208201905092915050565b6000819050602082019050919050565b6000612ea88383612938565b60208301905092915050565b6000602082019050919050565b6000612ecc82612e70565b612ed68185612e7b565b9350612ee183612e8c565b8060005b83811015612f12578151612ef98882612e9c565b9750612f0483612eb4565b925050600181019050612ee5565b5085935050505092915050565b60006020820190508181036000830152612f398184612ec1565b905092915050565b6000604083016000830151612f596000860182612938565b5060208301518482036020860152612f718282612958565b9150508091505092915050565b60006020820190508181036000830152612f988184612f41565b905092915050565b600067ffffffffffffffff821115612fbb57612fba612bf6565b5b612fc4826126ad565b9050602081019050919050565b6000612fe4612fdf84612fa0565b612c56565b90508281526020810184848401111561300057612fff612bf1565b5b61300b848285612ca2565b509392505050565b600082601f83011261302857613027612bec565b5b8135613038848260208601612fd1565b91505092915050565b600060208284031215613057576130566125d0565b5b600082013567ffffffffffffffff811115613075576130746125d5565b5b61308184828501613013565b91505092915050565b600080604083850312156130a1576130a06125d0565b5b60006130af85828601612877565b92505060206130c085828601612877565b9150509250929050565b7f4e487b7100000000000000000000000000000000000000000000000000000000600052602260045260246000fd5b6000600282049050600182168061311157607f821691505b602082108103613124576131236130ca565b5b50919050565b600060408201905061313f600083018561263d565b61314c602083018461263d565b9392505050565b60006060820190506131686000830186612836565b613175602083018561263d565b6131826040830184612836565b949350505050565b600060408201905061319f6000830185612836565b6131ac602083018461263d565b9392505050565b7f4e487b7100000000000000000000000000000000000000000000000000000000600052603260045260246000fd5b600060089050919050565b600081905092915050565b6000819050919050565b6000602082019050919050565b613218816131e2565b61322281846131ed565b925061322d826131f8565b8060005b8381101561325e5781516132458782612e9c565b965061325083613202565b925050600181019050613231565b505050505050565b6101a08201600082015161327d6000850182612938565b5060208201516132906020850182612938565b5060408201516132a36040850182612938565b5060608201516132b66060850182612938565b5060808201516132c96080850182612938565b5060a08201516132dc60a085018261320f565b50505050565b60006101c0820190506132f8600083018561263d565b6133056020830184613266565b9392505050565b600081905092915050565b600061332282612667565b61332c818561330c565b935061333c818560208601612683565b80840191505092915050565b60006133548285613317565b91506133608284613317565b91508190509392505050565b60008151905061337b816125e4565b92915050565b600060208284031215613397576133966125d0565b5b60006133a58482850161336c565b91505092915050565b60008190508160005260206000209050919050565b60006020601f8301049050919050565b600082821b905092915050565b6000600883026134107fffffffffffffffffffffffffffffffffffffffffffffffffffffffffffffffff826133d3565b61341a86836133d3565b95508019841693508086168417925050509392505050565b600061344d613448613443846125da565b612b06565b6125da565b9050919050565b6000819050919050565b61346783613432565b61347b61347382613454565b8484546133e0565b825550505050565b600090565b613490613483565b61349b81848461345e565b505050565b5b818110156134bf576134b4600082613488565b6001810190506134a1565b5050565b601f821115613504576134d5816133ae565b6134de846133c3565b810160208510156134ed578190505b6135016134f9856133c3565b8301826134a0565b50505b505050565b600082821c905092915050565b600061352760001984600802613509565b1980831691505092915050565b60006135408383613516565b9150826002028217905092915050565b61355982612667565b67ffffffffffffffff81111561357257613571612bf6565b5b61357c82546130f9565b6135878282856134c3565b600060209050601f8311600181146135ba57600084156135a8578287015190505b6135b28582613534565b86555061361a565b601f1984166135c8866133ae565b60005b828110156135f0578489015182556001820191506020850194506020810190506135cb565b8683101561360d5784890151613609601f891682613516565b8355505b6001600288020188555050505b505050505050565b600081519050919050565b600082825260208201905092915050565b600061364982613622565b613653818561362d565b9350613663818560208601612683565b61366c816126ad565b840191505092915050565b600060808201905061368c6000830187612836565b6136996020830186612836565b6136a6604083018561263d565b81810360608301526136b8818461363e565b905095945050505050565b6000815190506136d281612753565b92915050565b6000602082840312156136ee576136ed6125d0565b5b60006136fc848285016136c3565b91505092915050565b7f4e487b7100000000000000000000000000000000000000000000000000000000600052601260045260246000fd5b7f4e487b7100000000000000000000000000000000000000000000000000000000600052601160045260246000fd5b600061376e826125da565b9150613779836125da565b925082820390508181111561379157613790613734565b5b92915050565b7f4e487b7100000000000000000000000000000000000000000000000000000000600052603160045260246000fdfea2646970667358221220df4a0c616f91ffb2cc1e4a58c78fa612a6870d46b4afaa4e5b67512de4cf222a64736f6c63430008170033",
    "linkReferences": {},
    "deployedLinkReferences": {}
}