{
    "_format": "hh-sol-artifact-1",
    "contractName": "Feedback",
    "sourceName": "contracts/Feedback.sol",
    "abi": [
        {
            "inputs": [
                {
                    "internalType": "address",
                    "name": "semaphoreAddress",
                    "type": "address"
                }
            ],
            "stateMutability": "nonpayable",
            "type": "constructor"
        },
        {
            "inputs": [],
            "name": "ERC721EnumerableForbiddenBatchMint",
            "type": "error"
        },
        {
            "inputs": [
                {
                    "internalType": "address",
                    "name": "sender",
                    "type": "address"
                },
                {
                    "internalType": "uint256",
                    "name": "tokenId",
                    "type": "uint256"
                },
                {
                    "internalType": "address",
                    "name": "owner",
                    "type": "address"
                }
            ],
            "name": "ERC721IncorrectOwner",
            "type": "error"
        },
        {
            "inputs": [
                {
                    "internalType": "address",
                    "name": "operator",
                    "type": "address"
                },
                {
                    "internalType": "uint256",
                    "name": "tokenId",
                    "type": "uint256"
                }
            ],
            "name": "ERC721InsufficientApproval",
            "type": "error"
        },
        {
            "inputs": [
                {
                    "internalType": "address",
                    "name": "approver",
                    "type": "address"
                }
            ],
            "name": "ERC721InvalidApprover",
            "type": "error"
        },
        {
            "inputs": [
                {
                    "internalType": "address",
                    "name": "operator",
                    "type": "address"
                }
            ],
            "name": "ERC721InvalidOperator",
            "type": "error"
        },
        {
            "inputs": [
                {
                    "internalType": "address",
                    "name": "owner",
                    "type": "address"
                }
            ],
            "name": "ERC721InvalidOwner",
            "type": "error"
        },
        {
            "inputs": [
                {
                    "internalType": "address",
                    "name": "receiver",
                    "type": "address"
                }
            ],
            "name": "ERC721InvalidReceiver",
            "type": "error"
        },
        {
            "inputs": [
                {
                    "internalType": "address",
                    "name": "sender",
                    "type": "address"
                }
            ],
            "name": "ERC721InvalidSender",
            "type": "error"
        },
        {
            "inputs": [
                {
                    "internalType": "uint256",
                    "name": "tokenId",
                    "type": "uint256"
                }
            ],
            "name": "ERC721NonexistentToken",
            "type": "error"
        },
        {
            "inputs": [
                {
                    "internalType": "address",
                    "name": "owner",
                    "type": "address"
                },
                {
                    "internalType": "uint256",
                    "name": "index",
                    "type": "uint256"
                }
            ],
            "name": "ERC721OutOfBoundsIndex",
            "type": "error"
        },
        {
            "anonymous": false,
            "inputs": [
                {
                    "indexed": true,
                    "internalType": "address",
                    "name": "owner",
                    "type": "address"
                },
                {
                    "indexed": true,
                    "internalType": "address",
                    "name": "approved",
                    "type": "address"
                },
                {
                    "indexed": true,
                    "internalType": "uint256",
                    "name": "tokenId",
                    "type": "uint256"
                }
            ],
            "name": "Approval",
            "type": "event"
        },
        {
            "anonymous": false,
            "inputs": [
                {
                    "indexed": true,
                    "internalType": "address",
                    "name": "owner",
                    "type": "address"
                },
                {
                    "indexed": true,
                    "internalType": "address",
                    "name": "operator",
                    "type": "address"
                },
                {
                    "indexed": false,
                    "internalType": "bool",
                    "name": "approved",
                    "type": "bool"
                }
            ],
            "name": "ApprovalForAll",
            "type": "event"
        },
        {
            "anonymous": false,
            "inputs": [
                {
                    "indexed": true,
                    "internalType": "address",
                    "name": "from",
                    "type": "address"
                },
                {
                    "indexed": true,
                    "internalType": "address",
                    "name": "to",
                    "type": "address"
                },
                {
                    "indexed": true,
                    "internalType": "uint256",
                    "name": "tokenId",
                    "type": "uint256"
                }
            ],
            "name": "Transfer",
            "type": "event"
        },
        {
            "inputs": [
                {
                    "internalType": "address",
                    "name": "to",
                    "type": "address"
                },
                {
                    "internalType": "uint256",
                    "name": "tokenId",
                    "type": "uint256"
                }
            ],
            "name": "approve",
            "outputs": [],
            "stateMutability": "nonpayable",
            "type": "function"
        },
        {
            "inputs": [
                {
                    "internalType": "address",
                    "name": "owner",
                    "type": "address"
                }
            ],
            "name": "balanceOf",
            "outputs": [
                {
                    "internalType": "uint256",
                    "name": "",
                    "type": "uint256"
                }
            ],
            "stateMutability": "view",
            "type": "function"
        },
        {
            "inputs": [
                {
                    "internalType": "string",
                    "name": "name",
                    "type": "string"
                }
            ],
            "name": "createGroup",
            "outputs": [],
            "stateMutability": "nonpayable",
            "type": "function"
        },
        {
            "inputs": [
                {
                    "internalType": "uint256",
                    "name": "merkleTreeDepth",
                    "type": "uint256"
                },
                {
                    "internalType": "uint256",
                    "name": "merkleTreeRoot",
                    "type": "uint256"
                },
                {
                    "internalType": "uint256",
                    "name": "nullifier",
                    "type": "uint256"
                },
                {
                    "internalType": "uint256",
                    "name": "feedback",
                    "type": "uint256"
                },
                {
                    "internalType": "uint256[8]",
                    "name": "points",
                    "type": "uint256[8]"
                },
                {
                    "internalType": "address",
                    "name": "mintTo",
                    "type": "address"
                },
                {
                    "internalType": "uint256",
                    "name": "groupId",
                    "type": "uint256"
                }
            ],
            "name": "enterEvent",
            "outputs": [],
            "stateMutability": "nonpayable",
            "type": "function"
        },
        {
            "inputs": [],
            "name": "getAllGroups",
            "outputs": [
                {
                    "components": [
                        {
                            "internalType": "uint256",
                            "name": "groupId",
                            "type": "uint256"
                        },
                        {
                            "internalType": "string",
                            "name": "name",
                            "type": "string"
                        }
                    ],
                    "internalType": "struct Feedback.GroupInfo[]",
                    "name": "",
                    "type": "tuple[]"
                }
            ],
            "stateMutability": "view",
            "type": "function"
        },
        {
            "inputs": [
                {
                    "internalType": "uint256",
                    "name": "groupId",
                    "type": "uint256"
                }
            ],
            "name": "getAllNftsForGroup",
            "outputs": [
                {
                    "internalType": "uint256[]",
                    "name": "",
                    "type": "uint256[]"
                }
            ],
            "stateMutability": "view",
            "type": "function"
        },
        {
            "inputs": [
                {
                    "internalType": "uint256",
                    "name": "tokenId",
                    "type": "uint256"
                }
            ],
            "name": "getApproved",
            "outputs": [
                {
                    "internalType": "address",
                    "name": "",
                    "type": "address"
                }
            ],
            "stateMutability": "view",
            "type": "function"
        },
        {
            "inputs": [
                {
                    "internalType": "uint256",
                    "name": "groupId",
                    "type": "uint256"
                }
            ],
            "name": "getGroup",
            "outputs": [
                {
                    "components": [
                        {
                            "internalType": "uint256",
                            "name": "groupId",
                            "type": "uint256"
                        },
                        {
                            "internalType": "string",
                            "name": "name",
                            "type": "string"
                        }
                    ],
                    "internalType": "struct Feedback.GroupInfo",
                    "name": "",
                    "type": "tuple"
                }
            ],
            "stateMutability": "view",
            "type": "function"
        },
        {
            "inputs": [
                {
                    "internalType": "uint256",
                    "name": "groupId",
                    "type": "uint256"
                }
            ],
            "name": "groupIdToGroupInfo",
            "outputs": [
                {
                    "internalType": "uint256",
                    "name": "groupId",
                    "type": "uint256"
                },
                {
                    "internalType": "string",
                    "name": "name",
                    "type": "string"
                }
            ],
            "stateMutability": "view",
            "type": "function"
        },
        {
            "inputs": [
                {
                    "internalType": "uint256",
                    "name": "groupId",
                    "type": "uint256"
                },
                {
                    "internalType": "uint256",
                    "name": "",
                    "type": "uint256"
                }
            ],
            "name": "groupIdsToTokenIds",
            "outputs": [
                {
                    "internalType": "uint256",
                    "name": "tokenIds",
                    "type": "uint256"
                }
            ],
            "stateMutability": "view",
            "type": "function"
        },
        {
            "inputs": [
                {
                    "internalType": "uint256",
                    "name": "",
                    "type": "uint256"
                }
            ],
            "name": "groups",
            "outputs": [
                {
                    "internalType": "uint256",
                    "name": "groupId",
                    "type": "uint256"
                },
                {
                    "internalType": "string",
                    "name": "name",
                    "type": "string"
                }
            ],
            "stateMutability": "view",
            "type": "function"
        },
        {
            "inputs": [
                {
                    "internalType": "address",
                    "name": "owner",
                    "type": "address"
                },
                {
                    "internalType": "address",
                    "name": "operator",
                    "type": "address"
                }
            ],
            "name": "isApprovedForAll",
            "outputs": [
                {
                    "internalType": "bool",
                    "name": "",
                    "type": "bool"
                }
            ],
            "stateMutability": "view",
            "type": "function"
        },
        {
            "inputs": [
                {
                    "internalType": "uint256",
                    "name": "groupId",
                    "type": "uint256"
                },
                {
                    "internalType": "uint256",
                    "name": "identityCommitment",
                    "type": "uint256"
                }
            ],
            "name": "joinGroup",
            "outputs": [],
            "stateMutability": "nonpayable",
            "type": "function"
        },
        {
            "inputs": [],
            "name": "name",
            "outputs": [
                {
                    "internalType": "string",
                    "name": "",
                    "type": "string"
                }
            ],
            "stateMutability": "view",
            "type": "function"
        },
        {
            "inputs": [
                {
                    "internalType": "uint256",
                    "name": "tokenId",
                    "type": "uint256"
                }
            ],
            "name": "ownerOf",
            "outputs": [
                {
                    "internalType": "address",
                    "name": "",
                    "type": "address"
                }
            ],
            "stateMutability": "view",
            "type": "function"
        },
        {
            "inputs": [
                {
                    "internalType": "address",
                    "name": "from",
                    "type": "address"
                },
                {
                    "internalType": "address",
                    "name": "to",
                    "type": "address"
                },
                {
                    "internalType": "uint256",
                    "name": "tokenId",
                    "type": "uint256"
                }
            ],
            "name": "safeTransferFrom",
            "outputs": [],
            "stateMutability": "nonpayable",
            "type": "function"
        },
        {
            "inputs": [
                {
                    "internalType": "address",
                    "name": "from",
                    "type": "address"
                },
                {
                    "internalType": "address",
                    "name": "to",
                    "type": "address"
                },
                {
                    "internalType": "uint256",
                    "name": "tokenId",
                    "type": "uint256"
                },
                {
                    "internalType": "bytes",
                    "name": "data",
                    "type": "bytes"
                }
            ],
            "name": "safeTransferFrom",
            "outputs": [],
            "stateMutability": "nonpayable",
            "type": "function"
        },
        {
            "inputs": [],
            "name": "semaphore",
            "outputs": [
                {
                    "internalType": "contract ISemaphore",
                    "name": "",
                    "type": "address"
                }
            ],
            "stateMutability": "view",
            "type": "function"
        },
        {
            "inputs": [
                {
                    "internalType": "address",
                    "name": "operator",
                    "type": "address"
                },
                {
                    "internalType": "bool",
                    "name": "approved",
                    "type": "bool"
                }
            ],
            "name": "setApprovalForAll",
            "outputs": [],
            "stateMutability": "nonpayable",
            "type": "function"
        },
        {
            "inputs": [
                {
                    "internalType": "bytes4",
                    "name": "interfaceId",
                    "type": "bytes4"
                }
            ],
            "name": "supportsInterface",
            "outputs": [
                {
                    "internalType": "bool",
                    "name": "",
                    "type": "bool"
                }
            ],
            "stateMutability": "view",
            "type": "function"
        },
        {
            "inputs": [],
            "name": "symbol",
            "outputs": [
                {
                    "internalType": "string",
                    "name": "",
                    "type": "string"
                }
            ],
            "stateMutability": "view",
            "type": "function"
        },
        {
            "inputs": [
                {
                    "internalType": "uint256",
                    "name": "index",
                    "type": "uint256"
                }
            ],
            "name": "tokenByIndex",
            "outputs": [
                {
                    "internalType": "uint256",
                    "name": "",
                    "type": "uint256"
                }
            ],
            "stateMutability": "view",
            "type": "function"
        },
        {
            "inputs": [
                {
                    "internalType": "uint256",
                    "name": "tokenId",
                    "type": "uint256"
                }
            ],
            "name": "tokenIdToGroupId",
            "outputs": [
                {
                    "internalType": "uint256",
                    "name": "groupId",
                    "type": "uint256"
                }
            ],
            "stateMutability": "view",
            "type": "function"
        },
        {
            "inputs": [
                {
                    "internalType": "address",
                    "name": "owner",
                    "type": "address"
                },
                {
                    "internalType": "uint256",
                    "name": "index",
                    "type": "uint256"
                }
            ],
            "name": "tokenOfOwnerByIndex",
            "outputs": [
                {
                    "internalType": "uint256",
                    "name": "",
                    "type": "uint256"
                }
            ],
            "stateMutability": "view",
            "type": "function"
        },
        {
            "inputs": [
                {
                    "internalType": "uint256",
                    "name": "tokenId",
                    "type": "uint256"
                }
            ],
            "name": "tokenURI",
            "outputs": [
                {
                    "internalType": "string",
                    "name": "",
                    "type": "string"
                }
            ],
            "stateMutability": "view",
            "type": "function"
        },
        {
            "inputs": [],
            "name": "totalSupply",
            "outputs": [
                {
                    "internalType": "uint256",
                    "name": "",
                    "type": "uint256"
                }
            ],
            "stateMutability": "view",
            "type": "function"
        },
        {
            "inputs": [
                {
                    "internalType": "address",
                    "name": "from",
                    "type": "address"
                },
                {
                    "internalType": "address",
                    "name": "to",
                    "type": "address"
                },
                {
                    "internalType": "uint256",
                    "name": "tokenId",
                    "type": "uint256"
                }
            ],
            "name": "transferFrom",
            "outputs": [],
            "stateMutability": "nonpayable",
            "type": "function"
        }
    ],
    "bytecode": "0x60806040523480156200001157600080fd5b5060405162003c4e38038062003c4e83398181016040528101906200003791906200017b565b6040518060400160405280600f81526020017f416e6f6e796d6f75734576656e747300000000000000000000000000000000008152506040518060400160405280600281526020017f41450000000000000000000000000000000000000000000000000000000000008152508160009081620000b4919062000427565b508060019081620000c6919062000427565b50505080600a60006101000a81548173ffffffffffffffffffffffffffffffffffffffff021916908373ffffffffffffffffffffffffffffffffffffffff160217905550506200050e565b600080fd5b600073ffffffffffffffffffffffffffffffffffffffff82169050919050565b6000620001438262000116565b9050919050565b620001558162000136565b81146200016157600080fd5b50565b60008151905062000175816200014a565b92915050565b60006020828403121562000194576200019362000111565b5b6000620001a48482850162000164565b91505092915050565b600081519050919050565b7f4e487b7100000000000000000000000000000000000000000000000000000000600052604160045260246000fd5b7f4e487b7100000000000000000000000000000000000000000000000000000000600052602260045260246000fd5b600060028204905060018216806200022f57607f821691505b602082108103620002455762000244620001e7565b5b50919050565b60008190508160005260206000209050919050565b60006020601f8301049050919050565b600082821b905092915050565b600060088302620002af7fffffffffffffffffffffffffffffffffffffffffffffffffffffffffffffffff8262000270565b620002bb868362000270565b95508019841693508086168417925050509392505050565b6000819050919050565b6000819050919050565b60006200030862000302620002fc84620002d3565b620002dd565b620002d3565b9050919050565b6000819050919050565b6200032483620002e7565b6200033c62000333826200030f565b8484546200027d565b825550505050565b600090565b6200035362000344565b6200036081848462000319565b505050565b5b8181101562000388576200037c60008262000349565b60018101905062000366565b5050565b601f821115620003d757620003a1816200024b565b620003ac8462000260565b81016020851015620003bc578190505b620003d4620003cb8562000260565b83018262000365565b50505b505050565b600082821c905092915050565b6000620003fc60001984600802620003dc565b1980831691505092915050565b6000620004178383620003e9565b9150826002028217905092915050565b6200043282620001ad565b67ffffffffffffffff8111156200044e576200044d620001b8565b5b6200045a825462000216565b620004678282856200038c565b600060209050601f8311600181146200049f57600084156200048a578287015190505b62000496858262000409565b86555062000506565b601f198416620004af866200024b565b60005b82811015620004d957848901518255600182019150602085019450602081019050620004b2565b86831015620004f95784890151620004f5601f891682620003e9565b8355505b6001600288020188555050505b505050505050565b613730806200051e6000396000f3fe608060405234801561001057600080fd5b50600436106101a95760003560e01c80636352211e116100f9578063bd01ae9f11610097578063c87b56dd11610071578063c87b56dd1461051a578063ceb606541461054a578063dc2ddcae1461057a578063e985e9c514610596576101a9565b8063bd01ae9f1461049e578063bda1f895146104ba578063c302791c146104ea576101a9565b806395d89b41116100d357806395d89b411461041757806396324bd414610435578063a22cb46514610466578063b88d4fde14610482576101a9565b80636352211e1461039957806370a08231146103c95780637b5d2534146103f9576101a9565b806318160ddd1161016657806323b872dd1161014057806323b872dd146103015780632f745c591461031d57806342842e0e1461034d5780634f6ccce714610369576101a9565b806318160ddd146102a95780631a0c750c146102c757806321cd3cae146102e3576101a9565b8063011eb44d146101ae57806301674a38146101de57806301ffc9a71461020f57806306fdde031461023f578063081812fc1461025d578063095ea7b31461028d575b600080fd5b6101c860048036038101906101c391906125c8565b6105c6565b6040516101d59190612604565b60405180910390f35b6101f860048036038101906101f391906125c8565b6105de565b6040516102069291906126af565b60405180910390f35b61022960048036038101906102249190612737565b61068a565b604051610236919061277f565b60405180910390f35b610247610704565b604051610254919061279a565b60405180910390f35b610277600480360381019061027291906125c8565b610796565b60405161028491906127fd565b60405180910390f35b6102a760048036038101906102a29190612844565b6107b2565b005b6102b16107c8565b6040516102be9190612604565b60405180910390f35b6102e160048036038101906102dc9190612884565b6107d5565b005b6102eb610868565b6040516102f89190612a1c565b60405180910390f35b61031b60048036038101906103169190612a3e565b610963565b005b61033760048036038101906103329190612844565b610a65565b6040516103449190612604565b60405180910390f35b61036760048036038101906103629190612a3e565b610b0e565b005b610383600480360381019061037e91906125c8565b610b2e565b6040516103909190612604565b60405180910390f35b6103b360048036038101906103ae91906125c8565b610ba4565b6040516103c091906127fd565b60405180910390f35b6103e360048036038101906103de9190612a91565b610bb6565b6040516103f09190612604565b60405180910390f35b610401610c70565b60405161040e9190612b1d565b60405180910390f35b61041f610c96565b60405161042c919061279a565b60405180910390f35b61044f600480360381019061044a91906125c8565b610d28565b60405161045d9291906126af565b60405180910390f35b610480600480360381019061047b9190612b64565b610de4565b005b61049c60048036038101906104979190612cd9565b610dfa565b005b6104b860048036038101906104b39190612d83565b610e17565b005b6104d460048036038101906104cf91906125c8565b610f81565b6040516104e19190612ed7565b60405180910390f35b61050460048036038101906104ff9190612884565b610fec565b6040516105119190612604565b60405180910390f35b610534600480360381019061052f91906125c8565b61101d565b604051610541919061279a565b60405180910390f35b610564600480360381019061055f91906125c8565b611086565b6040516105719190612f36565b60405180910390f35b610594600480360381019061058f9190612fb3565b61115e565b005b6105b060048036038101906105ab9190613000565b611250565b6040516105bd919061277f565b60405180910390f35b600d6020528060005260406000206000915090505481565b600c6020528060005260406000206000915090508060000154908060010180546106079061306f565b80601f01602080910402602001604051908101604052809291908181526020018280546106339061306f565b80156106805780601f1061065557610100808354040283529160200191610680565b820191906000526020600020905b81548152906001019060200180831161066357829003601f168201915b5050505050905082565b60007f780e9d63000000000000000000000000000000000000000000000000000000007bffffffffffffffffffffffffffffffffffffffffffffffffffffffff1916827bffffffffffffffffffffffffffffffffffffffffffffffffffffffff191614806106fd57506106fc826112e4565b5b9050919050565b6060600080546107139061306f565b80601f016020809104026020016040519081016040528092919081815260200182805461073f9061306f565b801561078c5780601f106107615761010080835404028352916020019161078c565b820191906000526020600020905b81548152906001019060200180831161076f57829003601f168201915b5050505050905090565b60006107a1826113c6565b506107ab8261144e565b9050919050565b6107c482826107bf61148b565b611493565b5050565b6000600880549050905090565b600a60009054906101000a900473ffffffffffffffffffffffffffffffffffffffff1673ffffffffffffffffffffffffffffffffffffffff16631783efc383836040518363ffffffff1660e01b81526004016108329291906130a0565b600060405180830381600087803b15801561084c57600080fd5b505af1158015610860573d6000803e3d6000fd5b505050505050565b6060600b805480602002602001604051908101604052809291908181526020016000905b8282101561095a5783829060005260206000209060020201604051806040016040529081600082015481526020016001820180546108c99061306f565b80601f01602080910402602001604051908101604052809291908181526020018280546108f59061306f565b80156109425780601f1061091757610100808354040283529160200191610942565b820191906000526020600020905b81548152906001019060200180831161092557829003601f168201915b5050505050815250508152602001906001019061088c565b50505050905090565b600073ffffffffffffffffffffffffffffffffffffffff168273ffffffffffffffffffffffffffffffffffffffff16036109d55760006040517f64a0ae920000000000000000000000000000000000000000000000000000000081526004016109cc91906127fd565b60405180910390fd5b60006109e983836109e461148b565b6114a5565b90508373ffffffffffffffffffffffffffffffffffffffff168173ffffffffffffffffffffffffffffffffffffffff1614610a5f578382826040517f64283d7b000000000000000000000000000000000000000000000000000000008152600401610a56939291906130c9565b60405180910390fd5b50505050565b6000610a7083610bb6565b8210610ab55782826040517fa57d13dc000000000000000000000000000000000000000000000000000000008152600401610aac929190613100565b60405180910390fd5b600660008473ffffffffffffffffffffffffffffffffffffffff1673ffffffffffffffffffffffffffffffffffffffff168152602001908152602001600020600083815260200190815260200160002054905092915050565b610b2983838360405180602001604052806000815250610dfa565b505050565b6000610b386107c8565b8210610b7e576000826040517fa57d13dc000000000000000000000000000000000000000000000000000000008152600401610b75929190613100565b60405180910390fd5b60088281548110610b9257610b91613129565b5b90600052602060002001549050919050565b6000610baf826113c6565b9050919050565b60008073ffffffffffffffffffffffffffffffffffffffff168273ffffffffffffffffffffffffffffffffffffffff1603610c295760006040517f89c62b64000000000000000000000000000000000000000000000000000000008152600401610c2091906127fd565b60405180910390fd5b600360008373ffffffffffffffffffffffffffffffffffffffff1673ffffffffffffffffffffffffffffffffffffffff168152602001908152602001600020549050919050565b600a60009054906101000a900473ffffffffffffffffffffffffffffffffffffffff1681565b606060018054610ca59061306f565b80601f0160208091040260200160405190810160405280929190818152602001828054610cd19061306f565b8015610d1e5780601f10610cf357610100808354040283529160200191610d1e565b820191906000526020600020905b815481529060010190602001808311610d0157829003601f168201915b5050505050905090565b600b8181548110610d3857600080fd5b9060005260206000209060020201600091509050806000015490806001018054610d619061306f565b80601f0160208091040260200160405190810160405280929190818152602001828054610d8d9061306f565b8015610dda5780601f10610daf57610100808354040283529160200191610dda565b820191906000526020600020905b815481529060010190602001808311610dbd57829003601f168201915b5050505050905082565b610df6610def61148b565b83836115c2565b5050565b610e05848484610963565b610e1184848484611731565b50505050565b60006040518060c00160405280898152602001888152602001878152602001868152602001838152602001856008806020026040519081016040528092919082600860200280828437600081840152601f19601f8201169050808301925050505050508152509050600a60009054906101000a900473ffffffffffffffffffffffffffffffffffffffff1673ffffffffffffffffffffffffffffffffffffffff1663d0d898dd83836040518363ffffffff1660e01b8152600401610edc929190613258565b600060405180830381600087803b158015610ef657600080fd5b505af1158015610f0a573d6000803e3d6000fd5b505050506000610f186107c8565b9050610f2484826118e8565b82600d600083815260200190815260200160002081905550600e6000848152602001908152602001600020819080600181540180825580915050600190039060005260206000200160009091909190915055505050505050505050565b6060600e6000838152602001908152602001600020805480602002602001604051908101604052809291908181526020018280548015610fe057602002820191906000526020600020905b815481526020019060010190808311610fcc575b50505050509050919050565b600e602052816000526040600020818154811061100857600080fd5b90600052602060002001600091509150505481565b6060611028826113c6565b506000611033611906565b90506000815111611053576040518060200160405280600081525061107e565b8061105d8461191d565b60405160200161106e9291906132be565b6040516020818303038152906040525b915050919050565b61108e612564565b600b82815481106110a2576110a1613129565b5b9060005260206000209060020201604051806040016040529081600082015481526020016001820180546110d59061306f565b80601f01602080910402602001604051908101604052809291908181526020018280546111019061306f565b801561114e5780601f106111235761010080835404028352916020019161114e565b820191906000526020600020905b81548152906001019060200180831161113157829003601f168201915b5050505050815250509050919050565b6000600b8054905090506000604051806040016040528083815260200185858080601f016020809104026020016040519081016040528093929190818152602001838380828437600081840152601f19601f820116905080830192505050505050508152509050600b8190806001815401808255809150506001900390600052602060002090600202016000909190919091506000820151816000015560208201518160010190816112109190613484565b50505080600c60008481526020019081526020016000206000820151816000015560208201518160010190816112469190613484565b5090505050505050565b6000600560008473ffffffffffffffffffffffffffffffffffffffff1673ffffffffffffffffffffffffffffffffffffffff16815260200190815260200160002060008373ffffffffffffffffffffffffffffffffffffffff1673ffffffffffffffffffffffffffffffffffffffff16815260200190815260200160002060009054906101000a900460ff16905092915050565b60007f80ac58cd000000000000000000000000000000000000000000000000000000007bffffffffffffffffffffffffffffffffffffffffffffffffffffffff1916827bffffffffffffffffffffffffffffffffffffffffffffffffffffffff191614806113af57507f5b5e139f000000000000000000000000000000000000000000000000000000007bffffffffffffffffffffffffffffffffffffffffffffffffffffffff1916827bffffffffffffffffffffffffffffffffffffffffffffffffffffffff1916145b806113bf57506113be826119eb565b5b9050919050565b6000806113d283611a55565b9050600073ffffffffffffffffffffffffffffffffffffffff168173ffffffffffffffffffffffffffffffffffffffff160361144557826040517f7e27328900000000000000000000000000000000000000000000000000000000815260040161143c9190612604565b60405180910390fd5b80915050919050565b60006004600083815260200190815260200160002060009054906101000a900473ffffffffffffffffffffffffffffffffffffffff169050919050565b600033905090565b6114a08383836001611a92565b505050565b6000806114b3858585611c57565b9050600073ffffffffffffffffffffffffffffffffffffffff168173ffffffffffffffffffffffffffffffffffffffff16036114f7576114f284611e71565b611536565b8473ffffffffffffffffffffffffffffffffffffffff168173ffffffffffffffffffffffffffffffffffffffff1614611535576115348185611eba565b5b5b600073ffffffffffffffffffffffffffffffffffffffff168573ffffffffffffffffffffffffffffffffffffffff1603611578576115738461201b565b6115b7565b8473ffffffffffffffffffffffffffffffffffffffff168173ffffffffffffffffffffffffffffffffffffffff16146115b6576115b585856120ec565b5b5b809150509392505050565b600073ffffffffffffffffffffffffffffffffffffffff168273ffffffffffffffffffffffffffffffffffffffff160361163357816040517f5b08ba1800000000000000000000000000000000000000000000000000000000815260040161162a91906127fd565b60405180910390fd5b80600560008573ffffffffffffffffffffffffffffffffffffffff1673ffffffffffffffffffffffffffffffffffffffff16815260200190815260200160002060008473ffffffffffffffffffffffffffffffffffffffff1673ffffffffffffffffffffffffffffffffffffffff16815260200190815260200160002060006101000a81548160ff0219169083151502179055508173ffffffffffffffffffffffffffffffffffffffff168373ffffffffffffffffffffffffffffffffffffffff167f17307eab39ab6107e8899845ad3d59bd9653f200f220920489ca2b5937696c3183604051611724919061277f565b60405180910390a3505050565b60008373ffffffffffffffffffffffffffffffffffffffff163b11156118e2578273ffffffffffffffffffffffffffffffffffffffff1663150b7a0261177561148b565b8685856040518563ffffffff1660e01b815260040161179794939291906135ab565b6020604051808303816000875af19250505080156117d357506040513d601f19601f820116820180604052508101906117d0919061360c565b60015b611857573d8060008114611803576040519150601f19603f3d011682016040523d82523d6000602084013e611808565b606091505b50600081510361184f57836040517f64a0ae9200000000000000000000000000000000000000000000000000000000815260040161184691906127fd565b60405180910390fd5b805181602001fd5b63150b7a0260e01b7bffffffffffffffffffffffffffffffffffffffffffffffffffffffff1916817bffffffffffffffffffffffffffffffffffffffffffffffffffffffff1916146118e057836040517f64a0ae920000000000000000000000000000000000000000000000000000000081526004016118d791906127fd565b60405180910390fd5b505b50505050565b611902828260405180602001604052806000815250612177565b5050565b606060405180602001604052806000815250905090565b60606000600161192c84612193565b01905060008167ffffffffffffffff81111561194b5761194a612bae565b5b6040519080825280601f01601f19166020018201604052801561197d5781602001600182028036833780820191505090505b509050600082602001820190505b6001156119e0578080600190039150507f3031323334353637383961626364656600000000000000000000000000000000600a86061a8153600a85816119d4576119d3613639565b5b0494506000850361198b575b819350505050919050565b60007f01ffc9a7000000000000000000000000000000000000000000000000000000007bffffffffffffffffffffffffffffffffffffffffffffffffffffffff1916827bffffffffffffffffffffffffffffffffffffffffffffffffffffffff1916149050919050565b60006002600083815260200190815260200160002060009054906101000a900473ffffffffffffffffffffffffffffffffffffffff169050919050565b8080611acb5750600073ffffffffffffffffffffffffffffffffffffffff168273ffffffffffffffffffffffffffffffffffffffff1614155b15611bff576000611adb846113c6565b9050600073ffffffffffffffffffffffffffffffffffffffff168373ffffffffffffffffffffffffffffffffffffffff1614158015611b4657508273ffffffffffffffffffffffffffffffffffffffff168173ffffffffffffffffffffffffffffffffffffffff1614155b8015611b595750611b578184611250565b155b15611b9b57826040517fa9fbf51f000000000000000000000000000000000000000000000000000000008152600401611b9291906127fd565b60405180910390fd5b8115611bfd57838573ffffffffffffffffffffffffffffffffffffffff168273ffffffffffffffffffffffffffffffffffffffff167f8c5be1e5ebec7d5bd14f71427d1e84f3dd0314c0f7b2291e5b200ac8c7c3b92560405160405180910390a45b505b836004600085815260200190815260200160002060006101000a81548173ffffffffffffffffffffffffffffffffffffffff021916908373ffffffffffffffffffffffffffffffffffffffff16021790555050505050565b600080611c6384611a55565b9050600073ffffffffffffffffffffffffffffffffffffffff168373ffffffffffffffffffffffffffffffffffffffff1614611ca557611ca48184866122e6565b5b600073ffffffffffffffffffffffffffffffffffffffff168173ffffffffffffffffffffffffffffffffffffffff1614611d3657611ce7600085600080611a92565b6001600360008373ffffffffffffffffffffffffffffffffffffffff1673ffffffffffffffffffffffffffffffffffffffff168152602001908152602001600020600082825403925050819055505b600073ffffffffffffffffffffffffffffffffffffffff168573ffffffffffffffffffffffffffffffffffffffff1614611db9576001600360008773ffffffffffffffffffffffffffffffffffffffff1673ffffffffffffffffffffffffffffffffffffffff168152602001908152602001600020600082825401925050819055505b846002600086815260200190815260200160002060006101000a81548173ffffffffffffffffffffffffffffffffffffffff021916908373ffffffffffffffffffffffffffffffffffffffff160217905550838573ffffffffffffffffffffffffffffffffffffffff168273ffffffffffffffffffffffffffffffffffffffff167fddf252ad1be2c89b69c2b068fc378daa952ba7f163c4a11628f55a4df523b3ef60405160405180910390a4809150509392505050565b6008805490506009600083815260200190815260200160002081905550600881908060018154018082558091505060019003906000526020600020016000909190919091505550565b6000611ec583610bb6565b9050600060076000848152602001908152602001600020549050818114611faa576000600660008673ffffffffffffffffffffffffffffffffffffffff1673ffffffffffffffffffffffffffffffffffffffff168152602001908152602001600020600084815260200190815260200160002054905080600660008773ffffffffffffffffffffffffffffffffffffffff1673ffffffffffffffffffffffffffffffffffffffff168152602001908152602001600020600084815260200190815260200160002081905550816007600083815260200190815260200160002081905550505b6007600084815260200190815260200160002060009055600660008573ffffffffffffffffffffffffffffffffffffffff1673ffffffffffffffffffffffffffffffffffffffff16815260200190815260200160002060008381526020019081526020016000206000905550505050565b6000600160088054905061202f9190613697565b905060006009600084815260200190815260200160002054905060006008838154811061205f5761205e613129565b5b90600052602060002001549050806008838154811061208157612080613129565b5b9060005260206000200181905550816009600083815260200190815260200160002081905550600960008581526020019081526020016000206000905560088054806120d0576120cf6136cb565b5b6001900381819060005260206000200160009055905550505050565b600060016120f984610bb6565b6121039190613697565b905081600660008573ffffffffffffffffffffffffffffffffffffffff1673ffffffffffffffffffffffffffffffffffffffff168152602001908152602001600020600083815260200190815260200160002081905550806007600084815260200190815260200160002081905550505050565b61218183836123aa565b61218e6000848484611731565b505050565b600080600090507a184f03e93ff9f4daa797ed6e38ed64bf6a1f01000000000000000083106121f1577a184f03e93ff9f4daa797ed6e38ed64bf6a1f01000000000000000083816121e7576121e6613639565b5b0492506040810190505b6d04ee2d6d415b85acef8100000000831061222e576d04ee2d6d415b85acef8100000000838161222457612223613639565b5b0492506020810190505b662386f26fc10000831061225d57662386f26fc10000838161225357612252613639565b5b0492506010810190505b6305f5e1008310612286576305f5e100838161227c5761227b613639565b5b0492506008810190505b61271083106122ab5761271083816122a1576122a0613639565b5b0492506004810190505b606483106122ce57606483816122c4576122c3613639565b5b0492506002810190505b600a83106122dd576001810190505b80915050919050565b6122f18383836124a3565b6123a557600073ffffffffffffffffffffffffffffffffffffffff168373ffffffffffffffffffffffffffffffffffffffff160361236657806040517f7e27328900000000000000000000000000000000000000000000000000000000815260040161235d9190612604565b60405180910390fd5b81816040517f177e802f00000000000000000000000000000000000000000000000000000000815260040161239c929190613100565b60405180910390fd5b505050565b600073ffffffffffffffffffffffffffffffffffffffff168273ffffffffffffffffffffffffffffffffffffffff160361241c5760006040517f64a0ae9200000000000000000000000000000000000000000000000000000000815260040161241391906127fd565b60405180910390fd5b600061242a838360006114a5565b9050600073ffffffffffffffffffffffffffffffffffffffff168173ffffffffffffffffffffffffffffffffffffffff161461249e5760006040517f73c6ac6e00000000000000000000000000000000000000000000000000000000815260040161249591906127fd565b60405180910390fd5b505050565b60008073ffffffffffffffffffffffffffffffffffffffff168373ffffffffffffffffffffffffffffffffffffffff161415801561255b57508273ffffffffffffffffffffffffffffffffffffffff168473ffffffffffffffffffffffffffffffffffffffff16148061251c575061251b8484611250565b5b8061255a57508273ffffffffffffffffffffffffffffffffffffffff166125428361144e565b73ffffffffffffffffffffffffffffffffffffffff16145b5b90509392505050565b604051806040016040528060008152602001606081525090565b6000604051905090565b600080fd5b600080fd5b6000819050919050565b6125a581612592565b81146125b057600080fd5b50565b6000813590506125c28161259c565b92915050565b6000602082840312156125de576125dd612588565b5b60006125ec848285016125b3565b91505092915050565b6125fe81612592565b82525050565b600060208201905061261960008301846125f5565b92915050565b600081519050919050565b600082825260208201905092915050565b60005b8381101561265957808201518184015260208101905061263e565b60008484015250505050565b6000601f19601f8301169050919050565b60006126818261261f565b61268b818561262a565b935061269b81856020860161263b565b6126a481612665565b840191505092915050565b60006040820190506126c460008301856125f5565b81810360208301526126d68184612676565b90509392505050565b60007fffffffff0000000000000000000000000000000000000000000000000000000082169050919050565b612714816126df565b811461271f57600080fd5b50565b6000813590506127318161270b565b92915050565b60006020828403121561274d5761274c612588565b5b600061275b84828501612722565b91505092915050565b60008115159050919050565b61277981612764565b82525050565b60006020820190506127946000830184612770565b92915050565b600060208201905081810360008301526127b48184612676565b905092915050565b600073ffffffffffffffffffffffffffffffffffffffff82169050919050565b60006127e7826127bc565b9050919050565b6127f7816127dc565b82525050565b600060208201905061281260008301846127ee565b92915050565b612821816127dc565b811461282c57600080fd5b50565b60008135905061283e81612818565b92915050565b6000806040838503121561285b5761285a612588565b5b60006128698582860161282f565b925050602061287a858286016125b3565b9150509250929050565b6000806040838503121561289b5761289a612588565b5b60006128a9858286016125b3565b92505060206128ba858286016125b3565b9150509250929050565b600081519050919050565b600082825260208201905092915050565b6000819050602082019050919050565b6128f981612592565b82525050565b600082825260208201905092915050565b600061291b8261261f565b61292581856128ff565b935061293581856020860161263b565b61293e81612665565b840191505092915050565b600060408301600083015161296160008601826128f0565b50602083015184820360208601526129798282612910565b9150508091505092915050565b60006129928383612949565b905092915050565b6000602082019050919050565b60006129b2826128c4565b6129bc81856128cf565b9350836020820285016129ce856128e0565b8060005b85811015612a0a57848403895281516129eb8582612986565b94506129f68361299a565b925060208a019950506001810190506129d2565b50829750879550505050505092915050565b60006020820190508181036000830152612a3681846129a7565b905092915050565b600080600060608486031215612a5757612a56612588565b5b6000612a658682870161282f565b9350506020612a768682870161282f565b9250506040612a87868287016125b3565b9150509250925092565b600060208284031215612aa757612aa6612588565b5b6000612ab58482850161282f565b91505092915050565b6000819050919050565b6000612ae3612ade612ad9846127bc565b612abe565b6127bc565b9050919050565b6000612af582612ac8565b9050919050565b6000612b0782612aea565b9050919050565b612b1781612afc565b82525050565b6000602082019050612b326000830184612b0e565b92915050565b612b4181612764565b8114612b4c57600080fd5b50565b600081359050612b5e81612b38565b92915050565b60008060408385031215612b7b57612b7a612588565b5b6000612b898582860161282f565b9250506020612b9a85828601612b4f565b9150509250929050565b600080fd5b600080fd5b7f4e487b7100000000000000000000000000000000000000000000000000000000600052604160045260246000fd5b612be682612665565b810181811067ffffffffffffffff82111715612c0557612c04612bae565b5b80604052505050565b6000612c1861257e565b9050612c248282612bdd565b919050565b600067ffffffffffffffff821115612c4457612c43612bae565b5b612c4d82612665565b9050602081019050919050565b82818337600083830152505050565b6000612c7c612c7784612c29565b612c0e565b905082815260208101848484011115612c9857612c97612ba9565b5b612ca3848285612c5a565b509392505050565b600082601f830112612cc057612cbf612ba4565b5b8135612cd0848260208601612c69565b91505092915050565b60008060008060808587031215612cf357612cf2612588565b5b6000612d018782880161282f565b9450506020612d128782880161282f565b9350506040612d23878288016125b3565b925050606085013567ffffffffffffffff811115612d4457612d4361258d565b5b612d5087828801612cab565b91505092959194509250565b600080fd5b600081905082602060080282011115612d7d57612d7c612d5c565b5b92915050565b60008060008060008060006101c0888a031215612da357612da2612588565b5b6000612db18a828b016125b3565b9750506020612dc28a828b016125b3565b9650506040612dd38a828b016125b3565b9550506060612de48a828b016125b3565b9450506080612df58a828b01612d61565b935050610180612e078a828b0161282f565b9250506101a0612e198a828b016125b3565b91505092959891949750929550565b600081519050919050565b600082825260208201905092915050565b6000819050602082019050919050565b6000612e6083836128f0565b60208301905092915050565b6000602082019050919050565b6000612e8482612e28565b612e8e8185612e33565b9350612e9983612e44565b8060005b83811015612eca578151612eb18882612e54565b9750612ebc83612e6c565b925050600181019050612e9d565b5085935050505092915050565b60006020820190508181036000830152612ef18184612e79565b905092915050565b6000604083016000830151612f1160008601826128f0565b5060208301518482036020860152612f298282612910565b9150508091505092915050565b60006020820190508181036000830152612f508184612ef9565b905092915050565b600080fd5b60008083601f840112612f7357612f72612ba4565b5b8235905067ffffffffffffffff811115612f9057612f8f612f58565b5b602083019150836001820283011115612fac57612fab612d5c565b5b9250929050565b60008060208385031215612fca57612fc9612588565b5b600083013567ffffffffffffffff811115612fe857612fe761258d565b5b612ff485828601612f5d565b92509250509250929050565b6000806040838503121561301757613016612588565b5b60006130258582860161282f565b92505060206130368582860161282f565b9150509250929050565b7f4e487b7100000000000000000000000000000000000000000000000000000000600052602260045260246000fd5b6000600282049050600182168061308757607f821691505b60208210810361309a57613099613040565b5b50919050565b60006040820190506130b560008301856125f5565b6130c260208301846125f5565b9392505050565b60006060820190506130de60008301866127ee565b6130eb60208301856125f5565b6130f860408301846127ee565b949350505050565b600060408201905061311560008301856127ee565b61312260208301846125f5565b9392505050565b7f4e487b7100000000000000000000000000000000000000000000000000000000600052603260045260246000fd5b600060089050919050565b600081905092915050565b6000819050919050565b6000602082019050919050565b61318e81613158565b6131988184613163565b92506131a38261316e565b8060005b838110156131d45781516131bb8782612e54565b96506131c683613178565b9250506001810190506131a7565b505050505050565b6101a0820160008201516131f360008501826128f0565b50602082015161320660208501826128f0565b50604082015161321960408501826128f0565b50606082015161322c60608501826128f0565b50608082015161323f60808501826128f0565b5060a082015161325260a0850182613185565b50505050565b60006101c08201905061326e60008301856125f5565b61327b60208301846131dc565b9392505050565b600081905092915050565b60006132988261261f565b6132a28185613282565b93506132b281856020860161263b565b80840191505092915050565b60006132ca828561328d565b91506132d6828461328d565b91508190509392505050565b60008190508160005260206000209050919050565b60006020601f8301049050919050565b600082821b905092915050565b6000600883026133447fffffffffffffffffffffffffffffffffffffffffffffffffffffffffffffffff82613307565b61334e8683613307565b95508019841693508086168417925050509392505050565b600061338161337c61337784612592565b612abe565b612592565b9050919050565b6000819050919050565b61339b83613366565b6133af6133a782613388565b848454613314565b825550505050565b600090565b6133c46133b7565b6133cf818484613392565b505050565b5b818110156133f3576133e86000826133bc565b6001810190506133d5565b5050565b601f82111561343857613409816132e2565b613412846132f7565b81016020851015613421578190505b61343561342d856132f7565b8301826133d4565b50505b505050565b600082821c905092915050565b600061345b6000198460080261343d565b1980831691505092915050565b6000613474838361344a565b9150826002028217905092915050565b61348d8261261f565b67ffffffffffffffff8111156134a6576134a5612bae565b5b6134b0825461306f565b6134bb8282856133f7565b600060209050601f8311600181146134ee57600084156134dc578287015190505b6134e68582613468565b86555061354e565b601f1984166134fc866132e2565b60005b82811015613524578489015182556001820191506020850194506020810190506134ff565b86831015613541578489015161353d601f89168261344a565b8355505b6001600288020188555050505b505050505050565b600081519050919050565b600082825260208201905092915050565b600061357d82613556565b6135878185613561565b935061359781856020860161263b565b6135a081612665565b840191505092915050565b60006080820190506135c060008301876127ee565b6135cd60208301866127ee565b6135da60408301856125f5565b81810360608301526135ec8184613572565b905095945050505050565b6000815190506136068161270b565b92915050565b60006020828403121561362257613621612588565b5b6000613630848285016135f7565b91505092915050565b7f4e487b7100000000000000000000000000000000000000000000000000000000600052601260045260246000fd5b7f4e487b7100000000000000000000000000000000000000000000000000000000600052601160045260246000fd5b60006136a282612592565b91506136ad83612592565b92508282039050818111156136c5576136c4613668565b5b92915050565b7f4e487b7100000000000000000000000000000000000000000000000000000000600052603160045260246000fdfea26469706673582212207022c68560c8cbb248297f0c76c7bbb5f120491c01ba1b8837c1792ca571fdde64736f6c63430008170033",
    "linkReferences": {},
    "deployedLinkReferences": {}
}