{
  "_format": "hh-sol-artifact-1",
  "contractName": "Feedback",
  "sourceName": "contracts/Feedback.sol",
  "abi": [
    {
      "inputs": [
        {
          "internalType": "address",
          "name": "semaphoreAddress",
          "type": "address"
        }
      ],
      "stateMutability": "nonpayable",
      "type": "constructor"
    },
    {
      "inputs": [],
      "name": "ERC721EnumerableForbiddenBatchMint",
      "type": "error"
    },
    {
      "inputs": [
        {
          "internalType": "address",
          "name": "sender",
          "type": "address"
        },
        {
          "internalType": "uint256",
          "name": "tokenId",
          "type": "uint256"
        },
        {
          "internalType": "address",
          "name": "owner",
          "type": "address"
        }
      ],
      "name": "ERC721IncorrectOwner",
      "type": "error"
    },
    {
      "inputs": [
        {
          "internalType": "address",
          "name": "operator",
          "type": "address"
        },
        {
          "internalType": "uint256",
          "name": "tokenId",
          "type": "uint256"
        }
      ],
      "name": "ERC721InsufficientApproval",
      "type": "error"
    },
    {
      "inputs": [
        {
          "internalType": "address",
          "name": "approver",
          "type": "address"
        }
      ],
      "name": "ERC721InvalidApprover",
      "type": "error"
    },
    {
      "inputs": [
        {
          "internalType": "address",
          "name": "operator",
          "type": "address"
        }
      ],
      "name": "ERC721InvalidOperator",
      "type": "error"
    },
    {
      "inputs": [
        {
          "internalType": "address",
          "name": "owner",
          "type": "address"
        }
      ],
      "name": "ERC721InvalidOwner",
      "type": "error"
    },
    {
      "inputs": [
        {
          "internalType": "address",
          "name": "receiver",
          "type": "address"
        }
      ],
      "name": "ERC721InvalidReceiver",
      "type": "error"
    },
    {
      "inputs": [
        {
          "internalType": "address",
          "name": "sender",
          "type": "address"
        }
      ],
      "name": "ERC721InvalidSender",
      "type": "error"
    },
    {
      "inputs": [
        {
          "internalType": "uint256",
          "name": "tokenId",
          "type": "uint256"
        }
      ],
      "name": "ERC721NonexistentToken",
      "type": "error"
    },
    {
      "inputs": [
        {
          "internalType": "address",
          "name": "owner",
          "type": "address"
        },
        {
          "internalType": "uint256",
          "name": "index",
          "type": "uint256"
        }
      ],
      "name": "ERC721OutOfBoundsIndex",
      "type": "error"
    },
    {
      "anonymous": false,
      "inputs": [
        {
          "indexed": true,
          "internalType": "address",
          "name": "owner",
          "type": "address"
        },
        {
          "indexed": true,
          "internalType": "address",
          "name": "approved",
          "type": "address"
        },
        {
          "indexed": true,
          "internalType": "uint256",
          "name": "tokenId",
          "type": "uint256"
        }
      ],
      "name": "Approval",
      "type": "event"
    },
    {
      "anonymous": false,
      "inputs": [
        {
          "indexed": true,
          "internalType": "address",
          "name": "owner",
          "type": "address"
        },
        {
          "indexed": true,
          "internalType": "address",
          "name": "operator",
          "type": "address"
        },
        {
          "indexed": false,
          "internalType": "bool",
          "name": "approved",
          "type": "bool"
        }
      ],
      "name": "ApprovalForAll",
      "type": "event"
    },
    {
      "anonymous": false,
      "inputs": [
        {
          "indexed": true,
          "internalType": "address",
          "name": "from",
          "type": "address"
        },
        {
          "indexed": true,
          "internalType": "address",
          "name": "to",
          "type": "address"
        },
        {
          "indexed": true,
          "internalType": "uint256",
          "name": "tokenId",
          "type": "uint256"
        }
      ],
      "name": "Transfer",
      "type": "event"
    },
    {
      "inputs": [
        {
          "internalType": "address",
          "name": "to",
          "type": "address"
        },
        {
          "internalType": "uint256",
          "name": "tokenId",
          "type": "uint256"
        }
      ],
      "name": "approve",
      "outputs": [],
      "stateMutability": "nonpayable",
      "type": "function"
    },
    {
      "inputs": [
        {
          "internalType": "address",
          "name": "owner",
          "type": "address"
        }
      ],
      "name": "balanceOf",
      "outputs": [
        {
          "internalType": "uint256",
          "name": "",
          "type": "uint256"
        }
      ],
      "stateMutability": "view",
      "type": "function"
    },
    {
      "inputs": [
        {
          "internalType": "string",
          "name": "name",
          "type": "string"
        }
      ],
      "name": "createGroup",
      "outputs": [],
      "stateMutability": "nonpayable",
      "type": "function"
    },
    {
      "inputs": [
        {
          "internalType": "uint256",
          "name": "merkleTreeDepth",
          "type": "uint256"
        },
        {
          "internalType": "uint256",
          "name": "merkleTreeRoot",
          "type": "uint256"
        },
        {
          "internalType": "uint256",
          "name": "nullifier",
          "type": "uint256"
        },
        {
          "internalType": "uint256",
          "name": "feedback",
          "type": "uint256"
        },
        {
          "internalType": "uint256[8]",
          "name": "points",
          "type": "uint256[8]"
        },
        {
          "internalType": "address",
          "name": "mintTo",
          "type": "address"
        },
        {
          "internalType": "uint256",
          "name": "groupId",
          "type": "uint256"
        }
      ],
      "name": "enterEvent",
      "outputs": [],
      "stateMutability": "nonpayable",
      "type": "function"
    },
    {
      "inputs": [],
      "name": "getAllGroups",
      "outputs": [
        {
          "components": [
            {
              "internalType": "uint256",
              "name": "groupId",
              "type": "uint256"
            },
            {
              "internalType": "string",
              "name": "name",
              "type": "string"
            }
          ],
          "internalType": "struct Feedback.GroupInfo[]",
          "name": "",
          "type": "tuple[]"
        }
      ],
      "stateMutability": "view",
      "type": "function"
    },
    {
      "inputs": [
        {
          "internalType": "uint256",
          "name": "groupId",
          "type": "uint256"
        }
      ],
      "name": "getAllNftsForGroup",
      "outputs": [
        {
          "internalType": "uint256[]",
          "name": "",
          "type": "uint256[]"
        }
      ],
      "stateMutability": "view",
      "type": "function"
    },
    {
      "inputs": [
        {
          "internalType": "uint256",
          "name": "tokenId",
          "type": "uint256"
        }
      ],
      "name": "getApproved",
      "outputs": [
        {
          "internalType": "address",
          "name": "",
          "type": "address"
        }
      ],
      "stateMutability": "view",
      "type": "function"
    },
    {
      "inputs": [
        {
          "internalType": "uint256",
          "name": "groupId",
          "type": "uint256"
        }
      ],
      "name": "getGroup",
      "outputs": [
        {
          "components": [
            {
              "internalType": "uint256",
              "name": "groupId",
              "type": "uint256"
            },
            {
              "internalType": "string",
              "name": "name",
              "type": "string"
            }
          ],
          "internalType": "struct Feedback.GroupInfo",
          "name": "",
          "type": "tuple"
        }
      ],
      "stateMutability": "view",
      "type": "function"
    },
    {
      "inputs": [
        {
          "internalType": "uint256",
          "name": "groupId",
          "type": "uint256"
        }
      ],
      "name": "getIdentityCommitments",
      "outputs": [
        {
          "internalType": "uint256[]",
          "name": "",
          "type": "uint256[]"
        }
      ],
      "stateMutability": "view",
      "type": "function"
    },
    {
      "inputs": [
        {
          "internalType": "uint256",
          "name": "groupId",
          "type": "uint256"
        }
      ],
      "name": "groupIdToGroupInfo",
      "outputs": [
        {
          "internalType": "uint256",
          "name": "groupId",
          "type": "uint256"
        },
        {
          "internalType": "string",
          "name": "name",
          "type": "string"
        }
      ],
      "stateMutability": "view",
      "type": "function"
    },
    {
      "inputs": [
        {
          "internalType": "uint256",
          "name": "groupId",
          "type": "uint256"
        },
        {
          "internalType": "uint256",
          "name": "",
          "type": "uint256"
        }
      ],
      "name": "groupIdsToIdentityCommitments",
      "outputs": [
        {
          "internalType": "uint256",
          "name": "identityCommitments",
          "type": "uint256"
        }
      ],
      "stateMutability": "view",
      "type": "function"
    },
    {
      "inputs": [
        {
          "internalType": "uint256",
          "name": "groupId",
          "type": "uint256"
        },
        {
          "internalType": "uint256",
          "name": "",
          "type": "uint256"
        }
      ],
      "name": "groupIdsToTokenIds",
      "outputs": [
        {
          "internalType": "uint256",
          "name": "tokenIds",
          "type": "uint256"
        }
      ],
      "stateMutability": "view",
      "type": "function"
    },
    {
      "inputs": [
        {
          "internalType": "uint256",
          "name": "",
          "type": "uint256"
        }
      ],
      "name": "groups",
      "outputs": [
        {
          "internalType": "uint256",
          "name": "groupId",
          "type": "uint256"
        },
        {
          "internalType": "string",
          "name": "name",
          "type": "string"
        }
      ],
      "stateMutability": "view",
      "type": "function"
    },
    {
      "inputs": [
        {
          "internalType": "address",
          "name": "owner",
          "type": "address"
        },
        {
          "internalType": "address",
          "name": "operator",
          "type": "address"
        }
      ],
      "name": "isApprovedForAll",
      "outputs": [
        {
          "internalType": "bool",
          "name": "",
          "type": "bool"
        }
      ],
      "stateMutability": "view",
      "type": "function"
    },
    {
      "inputs": [
        {
          "internalType": "uint256",
          "name": "groupId",
          "type": "uint256"
        },
        {
          "internalType": "uint256",
          "name": "identityCommitment",
          "type": "uint256"
        }
      ],
      "name": "joinGroup",
      "outputs": [],
      "stateMutability": "nonpayable",
      "type": "function"
    },
    {
      "inputs": [],
      "name": "name",
      "outputs": [
        {
          "internalType": "string",
          "name": "",
          "type": "string"
        }
      ],
      "stateMutability": "view",
      "type": "function"
    },
    {
      "inputs": [
        {
          "internalType": "uint256",
          "name": "tokenId",
          "type": "uint256"
        }
      ],
      "name": "ownerOf",
      "outputs": [
        {
          "internalType": "address",
          "name": "",
          "type": "address"
        }
      ],
      "stateMutability": "view",
      "type": "function"
    },
    {
      "inputs": [
        {
          "internalType": "address",
          "name": "from",
          "type": "address"
        },
        {
          "internalType": "address",
          "name": "to",
          "type": "address"
        },
        {
          "internalType": "uint256",
          "name": "tokenId",
          "type": "uint256"
        }
      ],
      "name": "safeTransferFrom",
      "outputs": [],
      "stateMutability": "nonpayable",
      "type": "function"
    },
    {
      "inputs": [
        {
          "internalType": "address",
          "name": "from",
          "type": "address"
        },
        {
          "internalType": "address",
          "name": "to",
          "type": "address"
        },
        {
          "internalType": "uint256",
          "name": "tokenId",
          "type": "uint256"
        },
        {
          "internalType": "bytes",
          "name": "data",
          "type": "bytes"
        }
      ],
      "name": "safeTransferFrom",
      "outputs": [],
      "stateMutability": "nonpayable",
      "type": "function"
    },
    {
      "inputs": [],
      "name": "semaphore",
      "outputs": [
        {
          "internalType": "contract ISemaphore",
          "name": "",
          "type": "address"
        }
      ],
      "stateMutability": "view",
      "type": "function"
    },
    {
      "inputs": [
        {
          "internalType": "address",
          "name": "operator",
          "type": "address"
        },
        {
          "internalType": "bool",
          "name": "approved",
          "type": "bool"
        }
      ],
      "name": "setApprovalForAll",
      "outputs": [],
      "stateMutability": "nonpayable",
      "type": "function"
    },
    {
      "inputs": [
        {
          "internalType": "bytes4",
          "name": "interfaceId",
          "type": "bytes4"
        }
      ],
      "name": "supportsInterface",
      "outputs": [
        {
          "internalType": "bool",
          "name": "",
          "type": "bool"
        }
      ],
      "stateMutability": "view",
      "type": "function"
    },
    {
      "inputs": [],
      "name": "symbol",
      "outputs": [
        {
          "internalType": "string",
          "name": "",
          "type": "string"
        }
      ],
      "stateMutability": "view",
      "type": "function"
    },
    {
      "inputs": [
        {
          "internalType": "uint256",
          "name": "index",
          "type": "uint256"
        }
      ],
      "name": "tokenByIndex",
      "outputs": [
        {
          "internalType": "uint256",
          "name": "",
          "type": "uint256"
        }
      ],
      "stateMutability": "view",
      "type": "function"
    },
    {
      "inputs": [
        {
          "internalType": "uint256",
          "name": "tokenId",
          "type": "uint256"
        }
      ],
      "name": "tokenIdToGroupId",
      "outputs": [
        {
          "internalType": "uint256",
          "name": "groupId",
          "type": "uint256"
        }
      ],
      "stateMutability": "view",
      "type": "function"
    },
    {
      "inputs": [
        {
          "internalType": "address",
          "name": "owner",
          "type": "address"
        },
        {
          "internalType": "uint256",
          "name": "index",
          "type": "uint256"
        }
      ],
      "name": "tokenOfOwnerByIndex",
      "outputs": [
        {
          "internalType": "uint256",
          "name": "",
          "type": "uint256"
        }
      ],
      "stateMutability": "view",
      "type": "function"
    },
    {
      "inputs": [
        {
          "internalType": "uint256",
          "name": "tokenId",
          "type": "uint256"
        }
      ],
      "name": "tokenURI",
      "outputs": [
        {
          "internalType": "string",
          "name": "",
          "type": "string"
        }
      ],
      "stateMutability": "view",
      "type": "function"
    },
    {
      "inputs": [],
      "name": "totalSupply",
      "outputs": [
        {
          "internalType": "uint256",
          "name": "",
          "type": "uint256"
        }
      ],
      "stateMutability": "view",
      "type": "function"
    },
    {
      "inputs": [
        {
          "internalType": "address",
          "name": "from",
          "type": "address"
        },
        {
          "internalType": "address",
          "name": "to",
          "type": "address"
        },
        {
          "internalType": "uint256",
          "name": "tokenId",
          "type": "uint256"
        }
      ],
      "name": "transferFrom",
      "outputs": [],
      "stateMutability": "nonpayable",
      "type": "function"
    }
  ],
  "bytecode": "0x60806040523480156200001157600080fd5b506040516200406038038062004060833981810160405281019062000037919062000302565b6040518060400160405280600f81526020017f416e6f6e796d6f75734576656e747300000000000000000000000000000000008152506040518060400160405280600281526020017f41450000000000000000000000000000000000000000000000000000000000008152508160009081620000b49190620005ae565b508060019081620000c69190620005ae565b50505080600a60006101000a81548173ffffffffffffffffffffffffffffffffffffffff021916908373ffffffffffffffffffffffffffffffffffffffff160217905550620001506040518060400160405280600781526020017f5065746e696361000000000000000000000000000000000000000000000000008152506200015760201b60201c565b50620006f8565b6000600a60009054906101000a900473ffffffffffffffffffffffffffffffffffffffff1673ffffffffffffffffffffffffffffffffffffffff1663575185ed6040518163ffffffff1660e01b81526004016020604051808303816000875af1158015620001c9573d6000803e3d6000fd5b505050506040513d601f19601f82011682018060405250810190620001ef9190620006c6565b905060006040518060400160405280838152602001848152509050600b819080600181540180825580915050600190039060005260206000209060020201600090919091909150600082015181600001556020820151816001019081620002579190620005ae565b50505080600c60008481526020019081526020016000206000820151816000015560208201518160010190816200028f9190620005ae565b50905050505050565b600080fd5b600073ffffffffffffffffffffffffffffffffffffffff82169050919050565b6000620002ca826200029d565b9050919050565b620002dc81620002bd565b8114620002e857600080fd5b50565b600081519050620002fc81620002d1565b92915050565b6000602082840312156200031b576200031a62000298565b5b60006200032b84828501620002eb565b91505092915050565b600081519050919050565b7f4e487b7100000000000000000000000000000000000000000000000000000000600052604160045260246000fd5b7f4e487b7100000000000000000000000000000000000000000000000000000000600052602260045260246000fd5b60006002820490506001821680620003b657607f821691505b602082108103620003cc57620003cb6200036e565b5b50919050565b60008190508160005260206000209050919050565b60006020601f8301049050919050565b600082821b905092915050565b600060088302620004367fffffffffffffffffffffffffffffffffffffffffffffffffffffffffffffffff82620003f7565b620004428683620003f7565b95508019841693508086168417925050509392505050565b6000819050919050565b6000819050919050565b60006200048f6200048962000483846200045a565b62000464565b6200045a565b9050919050565b6000819050919050565b620004ab836200046e565b620004c3620004ba8262000496565b84845462000404565b825550505050565b600090565b620004da620004cb565b620004e7818484620004a0565b505050565b5b818110156200050f5762000503600082620004d0565b600181019050620004ed565b5050565b601f8211156200055e576200052881620003d2565b6200053384620003e7565b8101602085101562000543578190505b6200055b6200055285620003e7565b830182620004ec565b50505b505050565b600082821c905092915050565b6000620005836000198460080262000563565b1980831691505092915050565b60006200059e838362000570565b9150826002028217905092915050565b620005b98262000334565b67ffffffffffffffff811115620005d557620005d46200033f565b5b620005e182546200039d565b620005ee82828562000513565b600060209050601f83116001811462000626576000841562000611578287015190505b6200061d858262000590565b8655506200068d565b601f1984166200063686620003d2565b60005b82811015620006605784890151825560018201915060208501945060208101905062000639565b868310156200068057848901516200067c601f89168262000570565b8355505b6001600288020188555050505b505050505050565b620006a0816200045a565b8114620006ac57600080fd5b50565b600081519050620006c08162000695565b92915050565b600060208284031215620006df57620006de62000298565b5b6000620006ef84828501620006af565b91505092915050565b61395880620007086000396000f3fe608060405234801561001057600080fd5b50600436106101cf5760003560e01c80634f6ccce711610104578063b88d4fde116100a2578063c87b56dd11610071578063c87b56dd146105a0578063ceb60654146105d0578063dc2ddcae14610600578063e985e9c51461061c576101cf565b8063b88d4fde14610508578063bd01ae9f14610524578063bda1f89514610540578063c302791c14610570576101cf565b80637b5d2534116100de5780637b5d25341461047f57806395d89b411461049d57806396324bd4146104bb578063a22cb465146104ec576101cf565b80634f6ccce7146103ef5780636352211e1461041f57806370a082311461044f576101cf565b806318160ddd1161017157806322220d821161014b57806322220d821461035757806323b872dd146103875780632f745c59146103a357806342842e0e146103d3576101cf565b806318160ddd146102ff5780631a0c750c1461031d57806321cd3cae14610339576101cf565b806306fdde03116101ad57806306fdde0314610265578063081812fc146102835780630950371f146102b3578063095ea7b3146102e3576101cf565b8063011eb44d146101d457806301674a381461020457806301ffc9a714610235575b600080fd5b6101ee60048036038101906101e9919061276c565b61064c565b6040516101fb91906127a8565b60405180910390f35b61021e6004803603810190610219919061276c565b610664565b60405161022c929190612853565b60405180910390f35b61024f600480360381019061024a91906128db565b610710565b60405161025c9190612923565b60405180910390f35b61026d61078a565b60405161027a919061293e565b60405180910390f35b61029d6004803603810190610298919061276c565b61081c565b6040516102aa91906129a1565b60405180910390f35b6102cd60048036038101906102c8919061276c565b610838565b6040516102da9190612a7a565b60405180910390f35b6102fd60048036038101906102f89190612ac8565b6108a3565b005b6103076108b9565b60405161031491906127a8565b60405180910390f35b61033760048036038101906103329190612b08565b6108c6565b005b610341610993565b60405161034e9190612c91565b60405180910390f35b610371600480360381019061036c9190612b08565b610a8e565b60405161037e91906127a8565b60405180910390f35b6103a1600480360381019061039c9190612cb3565b610abf565b005b6103bd60048036038101906103b89190612ac8565b610bc1565b6040516103ca91906127a8565b60405180910390f35b6103ed60048036038101906103e89190612cb3565b610c6a565b005b6104096004803603810190610404919061276c565b610c8a565b60405161041691906127a8565b60405180910390f35b6104396004803603810190610434919061276c565b610d00565b60405161044691906129a1565b60405180910390f35b61046960048036038101906104649190612d06565b610d12565b60405161047691906127a8565b60405180910390f35b610487610dcc565b6040516104949190612d92565b60405180910390f35b6104a5610df2565b6040516104b2919061293e565b60405180910390f35b6104d560048036038101906104d0919061276c565b610e84565b6040516104e3929190612853565b60405180910390f35b61050660048036038101906105019190612dd9565b610f40565b005b610522600480360381019061051d9190612f4e565b610f56565b005b61053e60048036038101906105399190612ff8565b610f73565b005b61055a6004803603810190610555919061276c565b6110dd565b6040516105679190612a7a565b60405180910390f35b61058a60048036038101906105859190612b08565b611148565b60405161059791906127a8565b60405180910390f35b6105ba60048036038101906105b5919061276c565b611179565b6040516105c7919061293e565b60405180910390f35b6105ea60048036038101906105e5919061276c565b6111e2565b6040516105f791906130da565b60405180910390f35b61061a6004803603810190610615919061319d565b6112ba565b005b610636600480360381019061063191906131e6565b6113f4565b6040516106439190612923565b60405180910390f35b600d6020528060005260406000206000915090505481565b600c60205280600052604060002060009150905080600001549080600101805461068d90613255565b80601f01602080910402602001604051908101604052809291908181526020018280546106b990613255565b80156107065780601f106106db57610100808354040283529160200191610706565b820191906000526020600020905b8154815290600101906020018083116106e957829003601f168201915b5050505050905082565b60007f780e9d63000000000000000000000000000000000000000000000000000000007bffffffffffffffffffffffffffffffffffffffffffffffffffffffff1916827bffffffffffffffffffffffffffffffffffffffffffffffffffffffff19161480610783575061078282611488565b5b9050919050565b60606000805461079990613255565b80601f01602080910402602001604051908101604052809291908181526020018280546107c590613255565b80156108125780601f106107e757610100808354040283529160200191610812565b820191906000526020600020905b8154815290600101906020018083116107f557829003601f168201915b5050505050905090565b60006108278261156a565b50610831826115f2565b9050919050565b6060600f600083815260200190815260200160002080548060200260200160405190810160405280929190818152602001828054801561089757602002820191906000526020600020905b815481526020019060010190808311610883575b50505050509050919050565b6108b582826108b061162f565b611637565b5050565b6000600880549050905090565b600a60009054906101000a900473ffffffffffffffffffffffffffffffffffffffff1673ffffffffffffffffffffffffffffffffffffffff16631783efc383836040518363ffffffff1660e01b8152600401610923929190613286565b600060405180830381600087803b15801561093d57600080fd5b505af1158015610951573d6000803e3d6000fd5b50505050600f60008381526020019081526020016000208190806001815401808255809150506001900390600052602060002001600090919091909150555050565b6060600b805480602002602001604051908101604052809291908181526020016000905b82821015610a855783829060005260206000209060020201604051806040016040529081600082015481526020016001820180546109f490613255565b80601f0160208091040260200160405190810160405280929190818152602001828054610a2090613255565b8015610a6d5780601f10610a4257610100808354040283529160200191610a6d565b820191906000526020600020905b815481529060010190602001808311610a5057829003601f168201915b505050505081525050815260200190600101906109b7565b50505050905090565b600f6020528160005260406000208181548110610aaa57600080fd5b90600052602060002001600091509150505481565b600073ffffffffffffffffffffffffffffffffffffffff168273ffffffffffffffffffffffffffffffffffffffff1603610b315760006040517f64a0ae92000000000000000000000000000000000000000000000000000000008152600401610b2891906129a1565b60405180910390fd5b6000610b458383610b4061162f565b611649565b90508373ffffffffffffffffffffffffffffffffffffffff168173ffffffffffffffffffffffffffffffffffffffff1614610bbb578382826040517f64283d7b000000000000000000000000000000000000000000000000000000008152600401610bb2939291906132af565b60405180910390fd5b50505050565b6000610bcc83610d12565b8210610c115782826040517fa57d13dc000000000000000000000000000000000000000000000000000000008152600401610c089291906132e6565b60405180910390fd5b600660008473ffffffffffffffffffffffffffffffffffffffff1673ffffffffffffffffffffffffffffffffffffffff168152602001908152602001600020600083815260200190815260200160002054905092915050565b610c8583838360405180602001604052806000815250610f56565b505050565b6000610c946108b9565b8210610cda576000826040517fa57d13dc000000000000000000000000000000000000000000000000000000008152600401610cd19291906132e6565b60405180910390fd5b60088281548110610cee57610ced61330f565b5b90600052602060002001549050919050565b6000610d0b8261156a565b9050919050565b60008073ffffffffffffffffffffffffffffffffffffffff168273ffffffffffffffffffffffffffffffffffffffff1603610d855760006040517f89c62b64000000000000000000000000000000000000000000000000000000008152600401610d7c91906129a1565b60405180910390fd5b600360008373ffffffffffffffffffffffffffffffffffffffff1673ffffffffffffffffffffffffffffffffffffffff168152602001908152602001600020549050919050565b600a60009054906101000a900473ffffffffffffffffffffffffffffffffffffffff1681565b606060018054610e0190613255565b80601f0160208091040260200160405190810160405280929190818152602001828054610e2d90613255565b8015610e7a5780601f10610e4f57610100808354040283529160200191610e7a565b820191906000526020600020905b815481529060010190602001808311610e5d57829003601f168201915b5050505050905090565b600b8181548110610e9457600080fd5b9060005260206000209060020201600091509050806000015490806001018054610ebd90613255565b80601f0160208091040260200160405190810160405280929190818152602001828054610ee990613255565b8015610f365780601f10610f0b57610100808354040283529160200191610f36565b820191906000526020600020905b815481529060010190602001808311610f1957829003601f168201915b5050505050905082565b610f52610f4b61162f565b8383611766565b5050565b610f61848484610abf565b610f6d848484846118d5565b50505050565b60006040518060c00160405280898152602001888152602001878152602001868152602001838152602001856008806020026040519081016040528092919082600860200280828437600081840152601f19601f8201169050808301925050505050508152509050600a60009054906101000a900473ffffffffffffffffffffffffffffffffffffffff1673ffffffffffffffffffffffffffffffffffffffff1663d0d898dd83836040518363ffffffff1660e01b815260040161103892919061343e565b600060405180830381600087803b15801561105257600080fd5b505af1158015611066573d6000803e3d6000fd5b5050505060006110746108b9565b90506110808482611a8c565b82600d600083815260200190815260200160002081905550600e6000848152602001908152602001600020819080600181540180825580915050600190039060005260206000200160009091909190915055505050505050505050565b6060600e600083815260200190815260200160002080548060200260200160405190810160405280929190818152602001828054801561113c57602002820191906000526020600020905b815481526020019060010190808311611128575b50505050509050919050565b600e602052816000526040600020818154811061116457600080fd5b90600052602060002001600091509150505481565b60606111848261156a565b50600061118f611aaa565b905060008151116111af57604051806020016040528060008152506111da565b806111b984611ac1565b6040516020016111ca9291906134a4565b6040516020818303038152906040525b915050919050565b6111ea612708565b600b82815481106111fe576111fd61330f565b5b90600052602060002090600202016040518060400160405290816000820154815260200160018201805461123190613255565b80601f016020809104026020016040519081016040528092919081815260200182805461125d90613255565b80156112aa5780601f1061127f576101008083540402835291602001916112aa565b820191906000526020600020905b81548152906001019060200180831161128d57829003601f168201915b5050505050815250509050919050565b6000600a60009054906101000a900473ffffffffffffffffffffffffffffffffffffffff1673ffffffffffffffffffffffffffffffffffffffff1663575185ed6040518163ffffffff1660e01b81526004016020604051808303816000875af115801561132b573d6000803e3d6000fd5b505050506040513d601f19601f8201168201806040525081019061134f91906134dd565b905060006040518060400160405280838152602001848152509050600b8190806001815401808255809150506001900390600052602060002090600202016000909190919091506000820151816000015560208201518160010190816113b591906136ac565b50505080600c60008481526020019081526020016000206000820151816000015560208201518160010190816113eb91906136ac565b50905050505050565b6000600560008473ffffffffffffffffffffffffffffffffffffffff1673ffffffffffffffffffffffffffffffffffffffff16815260200190815260200160002060008373ffffffffffffffffffffffffffffffffffffffff1673ffffffffffffffffffffffffffffffffffffffff16815260200190815260200160002060009054906101000a900460ff16905092915050565b60007f80ac58cd000000000000000000000000000000000000000000000000000000007bffffffffffffffffffffffffffffffffffffffffffffffffffffffff1916827bffffffffffffffffffffffffffffffffffffffffffffffffffffffff1916148061155357507f5b5e139f000000000000000000000000000000000000000000000000000000007bffffffffffffffffffffffffffffffffffffffffffffffffffffffff1916827bffffffffffffffffffffffffffffffffffffffffffffffffffffffff1916145b80611563575061156282611b8f565b5b9050919050565b60008061157683611bf9565b9050600073ffffffffffffffffffffffffffffffffffffffff168173ffffffffffffffffffffffffffffffffffffffff16036115e957826040517f7e2732890000000000000000000000000000000000000000000000000000000081526004016115e091906127a8565b60405180910390fd5b80915050919050565b60006004600083815260200190815260200160002060009054906101000a900473ffffffffffffffffffffffffffffffffffffffff169050919050565b600033905090565b6116448383836001611c36565b505050565b600080611657858585611dfb565b9050600073ffffffffffffffffffffffffffffffffffffffff168173ffffffffffffffffffffffffffffffffffffffff160361169b5761169684612015565b6116da565b8473ffffffffffffffffffffffffffffffffffffffff168173ffffffffffffffffffffffffffffffffffffffff16146116d9576116d8818561205e565b5b5b600073ffffffffffffffffffffffffffffffffffffffff168573ffffffffffffffffffffffffffffffffffffffff160361171c57611717846121bf565b61175b565b8473ffffffffffffffffffffffffffffffffffffffff168173ffffffffffffffffffffffffffffffffffffffff161461175a576117598585612290565b5b5b809150509392505050565b600073ffffffffffffffffffffffffffffffffffffffff168273ffffffffffffffffffffffffffffffffffffffff16036117d757816040517f5b08ba180000000000000000000000000000000000000000000000000000000081526004016117ce91906129a1565b60405180910390fd5b80600560008573ffffffffffffffffffffffffffffffffffffffff1673ffffffffffffffffffffffffffffffffffffffff16815260200190815260200160002060008473ffffffffffffffffffffffffffffffffffffffff1673ffffffffffffffffffffffffffffffffffffffff16815260200190815260200160002060006101000a81548160ff0219169083151502179055508173ffffffffffffffffffffffffffffffffffffffff168373ffffffffffffffffffffffffffffffffffffffff167f17307eab39ab6107e8899845ad3d59bd9653f200f220920489ca2b5937696c31836040516118c89190612923565b60405180910390a3505050565b60008373ffffffffffffffffffffffffffffffffffffffff163b1115611a86578273ffffffffffffffffffffffffffffffffffffffff1663150b7a0261191961162f565b8685856040518563ffffffff1660e01b815260040161193b94939291906137d3565b6020604051808303816000875af192505050801561197757506040513d601f19601f820116820180604052508101906119749190613834565b60015b6119fb573d80600081146119a7576040519150601f19603f3d011682016040523d82523d6000602084013e6119ac565b606091505b5060008151036119f357836040517f64a0ae920000000000000000000000000000000000000000000000000000000081526004016119ea91906129a1565b60405180910390fd5b805181602001fd5b63150b7a0260e01b7bffffffffffffffffffffffffffffffffffffffffffffffffffffffff1916817bffffffffffffffffffffffffffffffffffffffffffffffffffffffff191614611a8457836040517f64a0ae92000000000000000000000000000000000000000000000000000000008152600401611a7b91906129a1565b60405180910390fd5b505b50505050565b611aa682826040518060200160405280600081525061231b565b5050565b606060405180602001604052806000815250905090565b606060006001611ad084612337565b01905060008167ffffffffffffffff811115611aef57611aee612e23565b5b6040519080825280601f01601f191660200182016040528015611b215781602001600182028036833780820191505090505b509050600082602001820190505b600115611b84578080600190039150507f3031323334353637383961626364656600000000000000000000000000000000600a86061a8153600a8581611b7857611b77613861565b5b04945060008503611b2f575b819350505050919050565b60007f01ffc9a7000000000000000000000000000000000000000000000000000000007bffffffffffffffffffffffffffffffffffffffffffffffffffffffff1916827bffffffffffffffffffffffffffffffffffffffffffffffffffffffff1916149050919050565b60006002600083815260200190815260200160002060009054906101000a900473ffffffffffffffffffffffffffffffffffffffff169050919050565b8080611c6f5750600073ffffffffffffffffffffffffffffffffffffffff168273ffffffffffffffffffffffffffffffffffffffff1614155b15611da3576000611c7f8461156a565b9050600073ffffffffffffffffffffffffffffffffffffffff168373ffffffffffffffffffffffffffffffffffffffff1614158015611cea57508273ffffffffffffffffffffffffffffffffffffffff168173ffffffffffffffffffffffffffffffffffffffff1614155b8015611cfd5750611cfb81846113f4565b155b15611d3f57826040517fa9fbf51f000000000000000000000000000000000000000000000000000000008152600401611d3691906129a1565b60405180910390fd5b8115611da157838573ffffffffffffffffffffffffffffffffffffffff168273ffffffffffffffffffffffffffffffffffffffff167f8c5be1e5ebec7d5bd14f71427d1e84f3dd0314c0f7b2291e5b200ac8c7c3b92560405160405180910390a45b505b836004600085815260200190815260200160002060006101000a81548173ffffffffffffffffffffffffffffffffffffffff021916908373ffffffffffffffffffffffffffffffffffffffff16021790555050505050565b600080611e0784611bf9565b9050600073ffffffffffffffffffffffffffffffffffffffff168373ffffffffffffffffffffffffffffffffffffffff1614611e4957611e4881848661248a565b5b600073ffffffffffffffffffffffffffffffffffffffff168173ffffffffffffffffffffffffffffffffffffffff1614611eda57611e8b600085600080611c36565b6001600360008373ffffffffffffffffffffffffffffffffffffffff1673ffffffffffffffffffffffffffffffffffffffff168152602001908152602001600020600082825403925050819055505b600073ffffffffffffffffffffffffffffffffffffffff168573ffffffffffffffffffffffffffffffffffffffff1614611f5d576001600360008773ffffffffffffffffffffffffffffffffffffffff1673ffffffffffffffffffffffffffffffffffffffff168152602001908152602001600020600082825401925050819055505b846002600086815260200190815260200160002060006101000a81548173ffffffffffffffffffffffffffffffffffffffff021916908373ffffffffffffffffffffffffffffffffffffffff160217905550838573ffffffffffffffffffffffffffffffffffffffff168273ffffffffffffffffffffffffffffffffffffffff167fddf252ad1be2c89b69c2b068fc378daa952ba7f163c4a11628f55a4df523b3ef60405160405180910390a4809150509392505050565b6008805490506009600083815260200190815260200160002081905550600881908060018154018082558091505060019003906000526020600020016000909190919091505550565b600061206983610d12565b905060006007600084815260200190815260200160002054905081811461214e576000600660008673ffffffffffffffffffffffffffffffffffffffff1673ffffffffffffffffffffffffffffffffffffffff168152602001908152602001600020600084815260200190815260200160002054905080600660008773ffffffffffffffffffffffffffffffffffffffff1673ffffffffffffffffffffffffffffffffffffffff168152602001908152602001600020600084815260200190815260200160002081905550816007600083815260200190815260200160002081905550505b6007600084815260200190815260200160002060009055600660008573ffffffffffffffffffffffffffffffffffffffff1673ffffffffffffffffffffffffffffffffffffffff16815260200190815260200160002060008381526020019081526020016000206000905550505050565b600060016008805490506121d391906138bf565b90506000600960008481526020019081526020016000205490506000600883815481106122035761220261330f565b5b9060005260206000200154905080600883815481106122255761222461330f565b5b906000526020600020018190555081600960008381526020019081526020016000208190555060096000858152602001908152602001600020600090556008805480612274576122736138f3565b5b6001900381819060005260206000200160009055905550505050565b6000600161229d84610d12565b6122a791906138bf565b905081600660008573ffffffffffffffffffffffffffffffffffffffff1673ffffffffffffffffffffffffffffffffffffffff168152602001908152602001600020600083815260200190815260200160002081905550806007600084815260200190815260200160002081905550505050565b612325838361254e565b61233260008484846118d5565b505050565b600080600090507a184f03e93ff9f4daa797ed6e38ed64bf6a1f0100000000000000008310612395577a184f03e93ff9f4daa797ed6e38ed64bf6a1f010000000000000000838161238b5761238a613861565b5b0492506040810190505b6d04ee2d6d415b85acef810000000083106123d2576d04ee2d6d415b85acef810000000083816123c8576123c7613861565b5b0492506020810190505b662386f26fc10000831061240157662386f26fc1000083816123f7576123f6613861565b5b0492506010810190505b6305f5e100831061242a576305f5e10083816124205761241f613861565b5b0492506008810190505b612710831061244f57612710838161244557612444613861565b5b0492506004810190505b60648310612472576064838161246857612467613861565b5b0492506002810190505b600a8310612481576001810190505b80915050919050565b612495838383612647565b61254957600073ffffffffffffffffffffffffffffffffffffffff168373ffffffffffffffffffffffffffffffffffffffff160361250a57806040517f7e27328900000000000000000000000000000000000000000000000000000000815260040161250191906127a8565b60405180910390fd5b81816040517f177e802f0000000000000000000000000000000000000000000000000000000081526004016125409291906132e6565b60405180910390fd5b505050565b600073ffffffffffffffffffffffffffffffffffffffff168273ffffffffffffffffffffffffffffffffffffffff16036125c05760006040517f64a0ae920000000000000000000000000000000000000000000000000000000081526004016125b791906129a1565b60405180910390fd5b60006125ce83836000611649565b9050600073ffffffffffffffffffffffffffffffffffffffff168173ffffffffffffffffffffffffffffffffffffffff16146126425760006040517f73c6ac6e00000000000000000000000000000000000000000000000000000000815260040161263991906129a1565b60405180910390fd5b505050565b60008073ffffffffffffffffffffffffffffffffffffffff168373ffffffffffffffffffffffffffffffffffffffff16141580156126ff57508273ffffffffffffffffffffffffffffffffffffffff168473ffffffffffffffffffffffffffffffffffffffff1614806126c057506126bf84846113f4565b5b806126fe57508273ffffffffffffffffffffffffffffffffffffffff166126e6836115f2565b73ffffffffffffffffffffffffffffffffffffffff16145b5b90509392505050565b604051806040016040528060008152602001606081525090565b6000604051905090565b600080fd5b600080fd5b6000819050919050565b61274981612736565b811461275457600080fd5b50565b60008135905061276681612740565b92915050565b6000602082840312156127825761278161272c565b5b600061279084828501612757565b91505092915050565b6127a281612736565b82525050565b60006020820190506127bd6000830184612799565b92915050565b600081519050919050565b600082825260208201905092915050565b60005b838110156127fd5780820151818401526020810190506127e2565b60008484015250505050565b6000601f19601f8301169050919050565b6000612825826127c3565b61282f81856127ce565b935061283f8185602086016127df565b61284881612809565b840191505092915050565b60006040820190506128686000830185612799565b818103602083015261287a818461281a565b90509392505050565b60007fffffffff0000000000000000000000000000000000000000000000000000000082169050919050565b6128b881612883565b81146128c357600080fd5b50565b6000813590506128d5816128af565b92915050565b6000602082840312156128f1576128f061272c565b5b60006128ff848285016128c6565b91505092915050565b60008115159050919050565b61291d81612908565b82525050565b60006020820190506129386000830184612914565b92915050565b60006020820190508181036000830152612958818461281a565b905092915050565b600073ffffffffffffffffffffffffffffffffffffffff82169050919050565b600061298b82612960565b9050919050565b61299b81612980565b82525050565b60006020820190506129b66000830184612992565b92915050565b600081519050919050565b600082825260208201905092915050565b6000819050602082019050919050565b6129f181612736565b82525050565b6000612a0383836129e8565b60208301905092915050565b6000602082019050919050565b6000612a27826129bc565b612a3181856129c7565b9350612a3c836129d8565b8060005b83811015612a6d578151612a5488826129f7565b9750612a5f83612a0f565b925050600181019050612a40565b5085935050505092915050565b60006020820190508181036000830152612a948184612a1c565b905092915050565b612aa581612980565b8114612ab057600080fd5b50565b600081359050612ac281612a9c565b92915050565b60008060408385031215612adf57612ade61272c565b5b6000612aed85828601612ab3565b9250506020612afe85828601612757565b9150509250929050565b60008060408385031215612b1f57612b1e61272c565b5b6000612b2d85828601612757565b9250506020612b3e85828601612757565b9150509250929050565b600081519050919050565b600082825260208201905092915050565b6000819050602082019050919050565b600082825260208201905092915050565b6000612b90826127c3565b612b9a8185612b74565b9350612baa8185602086016127df565b612bb381612809565b840191505092915050565b6000604083016000830151612bd660008601826129e8565b5060208301518482036020860152612bee8282612b85565b9150508091505092915050565b6000612c078383612bbe565b905092915050565b6000602082019050919050565b6000612c2782612b48565b612c318185612b53565b935083602082028501612c4385612b64565b8060005b85811015612c7f5784840389528151612c608582612bfb565b9450612c6b83612c0f565b925060208a01995050600181019050612c47565b50829750879550505050505092915050565b60006020820190508181036000830152612cab8184612c1c565b905092915050565b600080600060608486031215612ccc57612ccb61272c565b5b6000612cda86828701612ab3565b9350506020612ceb86828701612ab3565b9250506040612cfc86828701612757565b9150509250925092565b600060208284031215612d1c57612d1b61272c565b5b6000612d2a84828501612ab3565b91505092915050565b6000819050919050565b6000612d58612d53612d4e84612960565b612d33565b612960565b9050919050565b6000612d6a82612d3d565b9050919050565b6000612d7c82612d5f565b9050919050565b612d8c81612d71565b82525050565b6000602082019050612da76000830184612d83565b92915050565b612db681612908565b8114612dc157600080fd5b50565b600081359050612dd381612dad565b92915050565b60008060408385031215612df057612def61272c565b5b6000612dfe85828601612ab3565b9250506020612e0f85828601612dc4565b9150509250929050565b600080fd5b600080fd5b7f4e487b7100000000000000000000000000000000000000000000000000000000600052604160045260246000fd5b612e5b82612809565b810181811067ffffffffffffffff82111715612e7a57612e79612e23565b5b80604052505050565b6000612e8d612722565b9050612e998282612e52565b919050565b600067ffffffffffffffff821115612eb957612eb8612e23565b5b612ec282612809565b9050602081019050919050565b82818337600083830152505050565b6000612ef1612eec84612e9e565b612e83565b905082815260208101848484011115612f0d57612f0c612e1e565b5b612f18848285612ecf565b509392505050565b600082601f830112612f3557612f34612e19565b5b8135612f45848260208601612ede565b91505092915050565b60008060008060808587031215612f6857612f6761272c565b5b6000612f7687828801612ab3565b9450506020612f8787828801612ab3565b9350506040612f9887828801612757565b925050606085013567ffffffffffffffff811115612fb957612fb8612731565b5b612fc587828801612f20565b91505092959194509250565b600080fd5b600081905082602060080282011115612ff257612ff1612fd1565b5b92915050565b60008060008060008060006101c0888a0312156130185761301761272c565b5b60006130268a828b01612757565b97505060206130378a828b01612757565b96505060406130488a828b01612757565b95505060606130598a828b01612757565b945050608061306a8a828b01612fd6565b93505061018061307c8a828b01612ab3565b9250506101a061308e8a828b01612757565b91505092959891949750929550565b60006040830160008301516130b560008601826129e8565b50602083015184820360208601526130cd8282612b85565b9150508091505092915050565b600060208201905081810360008301526130f4818461309d565b905092915050565b600067ffffffffffffffff82111561311757613116612e23565b5b61312082612809565b9050602081019050919050565b600061314061313b846130fc565b612e83565b90508281526020810184848401111561315c5761315b612e1e565b5b613167848285612ecf565b509392505050565b600082601f83011261318457613183612e19565b5b813561319484826020860161312d565b91505092915050565b6000602082840312156131b3576131b261272c565b5b600082013567ffffffffffffffff8111156131d1576131d0612731565b5b6131dd8482850161316f565b91505092915050565b600080604083850312156131fd576131fc61272c565b5b600061320b85828601612ab3565b925050602061321c85828601612ab3565b9150509250929050565b7f4e487b7100000000000000000000000000000000000000000000000000000000600052602260045260246000fd5b6000600282049050600182168061326d57607f821691505b6020821081036132805761327f613226565b5b50919050565b600060408201905061329b6000830185612799565b6132a86020830184612799565b9392505050565b60006060820190506132c46000830186612992565b6132d16020830185612799565b6132de6040830184612992565b949350505050565b60006040820190506132fb6000830185612992565b6133086020830184612799565b9392505050565b7f4e487b7100000000000000000000000000000000000000000000000000000000600052603260045260246000fd5b600060089050919050565b600081905092915050565b6000819050919050565b6000602082019050919050565b6133748161333e565b61337e8184613349565b925061338982613354565b8060005b838110156133ba5781516133a187826129f7565b96506133ac8361335e565b92505060018101905061338d565b505050505050565b6101a0820160008201516133d960008501826129e8565b5060208201516133ec60208501826129e8565b5060408201516133ff60408501826129e8565b50606082015161341260608501826129e8565b50608082015161342560808501826129e8565b5060a082015161343860a085018261336b565b50505050565b60006101c0820190506134546000830185612799565b61346160208301846133c2565b9392505050565b600081905092915050565b600061347e826127c3565b6134888185613468565b93506134988185602086016127df565b80840191505092915050565b60006134b08285613473565b91506134bc8284613473565b91508190509392505050565b6000815190506134d781612740565b92915050565b6000602082840312156134f3576134f261272c565b5b6000613501848285016134c8565b91505092915050565b60008190508160005260206000209050919050565b60006020601f8301049050919050565b600082821b905092915050565b60006008830261356c7fffffffffffffffffffffffffffffffffffffffffffffffffffffffffffffffff8261352f565b613576868361352f565b95508019841693508086168417925050509392505050565b60006135a96135a461359f84612736565b612d33565b612736565b9050919050565b6000819050919050565b6135c38361358e565b6135d76135cf826135b0565b84845461353c565b825550505050565b600090565b6135ec6135df565b6135f78184846135ba565b505050565b5b8181101561361b576136106000826135e4565b6001810190506135fd565b5050565b601f821115613660576136318161350a565b61363a8461351f565b81016020851015613649578190505b61365d6136558561351f565b8301826135fc565b50505b505050565b600082821c905092915050565b600061368360001984600802613665565b1980831691505092915050565b600061369c8383613672565b9150826002028217905092915050565b6136b5826127c3565b67ffffffffffffffff8111156136ce576136cd612e23565b5b6136d88254613255565b6136e382828561361f565b600060209050601f8311600181146137165760008415613704578287015190505b61370e8582613690565b865550613776565b601f1984166137248661350a565b60005b8281101561374c57848901518255600182019150602085019450602081019050613727565b868310156137695784890151613765601f891682613672565b8355505b6001600288020188555050505b505050505050565b600081519050919050565b600082825260208201905092915050565b60006137a58261377e565b6137af8185613789565b93506137bf8185602086016127df565b6137c881612809565b840191505092915050565b60006080820190506137e86000830187612992565b6137f56020830186612992565b6138026040830185612799565b8181036060830152613814818461379a565b905095945050505050565b60008151905061382e816128af565b92915050565b60006020828403121561384a5761384961272c565b5b60006138588482850161381f565b91505092915050565b7f4e487b7100000000000000000000000000000000000000000000000000000000600052601260045260246000fd5b7f4e487b7100000000000000000000000000000000000000000000000000000000600052601160045260246000fd5b60006138ca82612736565b91506138d583612736565b92508282039050818111156138ed576138ec613890565b5b92915050565b7f4e487b7100000000000000000000000000000000000000000000000000000000600052603160045260246000fdfea2646970667358221220d7d8677d8f9c3710d7678474ec671636a332e85f2f7e070c8d1f54d6abd237c864736f6c63430008170033",
  "linkReferences": {},
  "deployedLinkReferences": {}
}